{
  "address": "0x5FbDB2315678afecb367f032d93F642f64180aa3",
  "abi": [
    {
      "inputs": [
        {
          "internalType": "string",
          "name": "_newBaseUri",
          "type": "string"
        }
      ],
      "stateMutability": "nonpayable",
      "type": "constructor"
    },
    {
      "anonymous": false,
      "inputs": [
        {
          "indexed": true,
          "internalType": "address",
          "name": "account",
          "type": "address"
        },
        {
          "indexed": true,
          "internalType": "address",
          "name": "operator",
          "type": "address"
        },
        {
          "indexed": false,
          "internalType": "bool",
          "name": "approved",
          "type": "bool"
        }
      ],
      "name": "ApprovalForAll",
      "type": "event"
    },
    {
      "anonymous": false,
      "inputs": [
        {
          "indexed": true,
          "internalType": "address",
          "name": "previousOwner",
          "type": "address"
        },
        {
          "indexed": true,
          "internalType": "address",
          "name": "newOwner",
          "type": "address"
        }
      ],
      "name": "OwnershipTransferred",
      "type": "event"
    },
    {
      "anonymous": false,
      "inputs": [
        {
          "indexed": true,
          "internalType": "uint256",
          "name": "tokenId",
          "type": "uint256"
        },
        {
          "indexed": false,
          "internalType": "string",
          "name": "uriId",
          "type": "string"
        },
        {
          "indexed": false,
          "internalType": "bool",
          "name": "transferables",
          "type": "bool"
        }
      ],
      "name": "TierChange",
      "type": "event"
    },
    {
      "anonymous": false,
      "inputs": [
        {
          "indexed": true,
          "internalType": "address",
          "name": "operator",
          "type": "address"
        },
        {
          "indexed": true,
          "internalType": "address",
          "name": "from",
          "type": "address"
        },
        {
          "indexed": true,
          "internalType": "address",
          "name": "to",
          "type": "address"
        },
        {
          "indexed": false,
          "internalType": "uint256[]",
          "name": "ids",
          "type": "uint256[]"
        },
        {
          "indexed": false,
          "internalType": "uint256[]",
          "name": "values",
          "type": "uint256[]"
        }
      ],
      "name": "TransferBatch",
      "type": "event"
    },
    {
      "anonymous": false,
      "inputs": [
        {
          "indexed": true,
          "internalType": "address",
          "name": "operator",
          "type": "address"
        },
        {
          "indexed": true,
          "internalType": "address",
          "name": "from",
          "type": "address"
        },
        {
          "indexed": true,
          "internalType": "address",
          "name": "to",
          "type": "address"
        },
        {
          "indexed": false,
          "internalType": "uint256",
          "name": "id",
          "type": "uint256"
        },
        {
          "indexed": false,
          "internalType": "uint256",
          "name": "value",
          "type": "uint256"
        }
      ],
      "name": "TransferSingle",
      "type": "event"
    },
    {
      "anonymous": false,
      "inputs": [
        {
          "indexed": false,
          "internalType": "string",
          "name": "value",
          "type": "string"
        },
        {
          "indexed": true,
          "internalType": "uint256",
          "name": "id",
          "type": "uint256"
        }
      ],
      "name": "URI",
      "type": "event"
    },
    {
      "inputs": [
        {
          "internalType": "address[]",
          "name": "tokens",
          "type": "address[]"
        },
        {
          "internalType": "string[]",
          "name": "tierUris",
          "type": "string[]"
        }
      ],
      "name": "addBoxTokens",
      "outputs": [],
      "stateMutability": "nonpayable",
      "type": "function"
    },
    {
      "inputs": [
        {
          "internalType": "address",
          "name": "account",
          "type": "address"
        },
        {
          "internalType": "uint256",
          "name": "id",
          "type": "uint256"
        }
      ],
      "name": "balanceOf",
      "outputs": [
        {
          "internalType": "uint256",
          "name": "",
          "type": "uint256"
        }
      ],
      "stateMutability": "view",
      "type": "function"
    },
    {
      "inputs": [
        {
          "internalType": "address[]",
          "name": "accounts",
          "type": "address[]"
        },
        {
          "internalType": "uint256[]",
          "name": "ids",
          "type": "uint256[]"
        }
      ],
      "name": "balanceOfBatch",
      "outputs": [
        {
          "internalType": "uint256[]",
          "name": "",
          "type": "uint256[]"
        }
      ],
      "stateMutability": "view",
      "type": "function"
    },
    {
      "inputs": [
        {
          "internalType": "address",
          "name": "account",
          "type": "address"
        },
        {
          "internalType": "uint256",
          "name": "id",
          "type": "uint256"
        },
        {
          "internalType": "uint256",
          "name": "amount",
          "type": "uint256"
        }
      ],
      "name": "burn",
      "outputs": [],
      "stateMutability": "nonpayable",
      "type": "function"
    },
    {
      "inputs": [
        {
          "internalType": "address[]",
          "name": "accounts",
          "type": "address[]"
        },
        {
          "internalType": "uint256[]",
          "name": "tokenIds",
          "type": "uint256[]"
        },
        {
          "internalType": "uint256[]",
          "name": "amounts",
          "type": "uint256[]"
        }
      ],
      "name": "burnFromMultiple",
      "outputs": [],
      "stateMutability": "nonpayable",
      "type": "function"
    },
    {
      "inputs": [
        {
          "internalType": "string",
          "name": "_newBaseUri",
          "type": "string"
        }
      ],
      "name": "changeBaseUri",
      "outputs": [],
      "stateMutability": "nonpayable",
      "type": "function"
    },
    {
      "inputs": [
        {
          "internalType": "address[]",
          "name": "boxTokens",
          "type": "address[]"
        }
      ],
      "name": "claimGovernanceTokens",
      "outputs": [],
      "stateMutability": "nonpayable",
      "type": "function"
    },
    {
      "inputs": [
        {
          "internalType": "uint256",
          "name": "tokenId",
          "type": "uint256"
        },
        {
          "internalType": "string",
          "name": "uriId",
          "type": "string"
        },
        {
          "internalType": "bool",
          "name": "transferable",
          "type": "bool"
        },
        {
          "internalType": "address",
          "name": "boxToken",
          "type": "address"
        }
      ],
      "name": "createTokenTier",
      "outputs": [],
      "stateMutability": "nonpayable",
      "type": "function"
    },
    {
      "inputs": [],
      "name": "getBoxTokens",
      "outputs": [
        {
          "internalType": "address[]",
          "name": "boxTokens",
          "type": "address[]"
        }
      ],
      "stateMutability": "view",
      "type": "function"
    },
    {
      "inputs": [
        {
          "internalType": "address",
          "name": "account",
          "type": "address"
        },
        {
          "internalType": "address",
          "name": "operator",
          "type": "address"
        }
      ],
      "name": "isApprovedForAll",
      "outputs": [
        {
          "internalType": "bool",
          "name": "",
          "type": "bool"
        }
      ],
      "stateMutability": "view",
      "type": "function"
    },
    {
      "inputs": [
        {
          "internalType": "address",
          "name": "account",
          "type": "address"
        },
        {
          "internalType": "uint256",
          "name": "id",
          "type": "uint256"
        },
        {
          "internalType": "uint256",
          "name": "amount",
          "type": "uint256"
        }
      ],
      "name": "mint",
      "outputs": [],
      "stateMutability": "nonpayable",
      "type": "function"
    },
    {
      "inputs": [
        {
          "internalType": "address[]",
          "name": "accounts",
          "type": "address[]"
        },
        {
          "internalType": "uint256[]",
          "name": "tokenIds",
          "type": "uint256[]"
        },
        {
          "internalType": "uint256[]",
          "name": "amounts",
          "type": "uint256[]"
        }
      ],
      "name": "mintToMultiple",
      "outputs": [],
      "stateMutability": "nonpayable",
      "type": "function"
    },
    {
      "inputs": [],
      "name": "owner",
      "outputs": [
        {
          "internalType": "address",
          "name": "",
          "type": "address"
        }
      ],
      "stateMutability": "view",
      "type": "function"
    },
    {
      "inputs": [],
      "name": "renounceOwnership",
      "outputs": [],
      "stateMutability": "nonpayable",
      "type": "function"
    },
    {
      "inputs": [
        {
          "internalType": "address",
          "name": "from",
          "type": "address"
        },
        {
          "internalType": "address",
          "name": "to",
          "type": "address"
        },
        {
          "internalType": "uint256[]",
          "name": "ids",
          "type": "uint256[]"
        },
        {
          "internalType": "uint256[]",
          "name": "amounts",
          "type": "uint256[]"
        },
        {
          "internalType": "bytes",
          "name": "data",
          "type": "bytes"
        }
      ],
      "name": "safeBatchTransferFrom",
      "outputs": [],
      "stateMutability": "nonpayable",
      "type": "function"
    },
    {
      "inputs": [
        {
          "internalType": "address",
          "name": "from",
          "type": "address"
        },
        {
          "internalType": "address",
          "name": "to",
          "type": "address"
        },
        {
          "internalType": "uint256",
          "name": "id",
          "type": "uint256"
        },
        {
          "internalType": "uint256",
          "name": "amount",
          "type": "uint256"
        },
        {
          "internalType": "bytes",
          "name": "data",
          "type": "bytes"
        }
      ],
      "name": "safeTransferFrom",
      "outputs": [],
      "stateMutability": "nonpayable",
      "type": "function"
    },
    {
      "inputs": [
        {
          "internalType": "address",
          "name": "operator",
          "type": "address"
        },
        {
          "internalType": "bool",
          "name": "approved",
          "type": "bool"
        }
      ],
      "name": "setApprovalForAll",
      "outputs": [],
      "stateMutability": "nonpayable",
      "type": "function"
    },
    {
      "inputs": [
        {
          "internalType": "bytes4",
          "name": "interfaceId",
          "type": "bytes4"
        }
      ],
      "name": "supportsInterface",
      "outputs": [
        {
          "internalType": "bool",
          "name": "",
          "type": "bool"
        }
      ],
      "stateMutability": "view",
      "type": "function"
    },
    {
      "inputs": [
        {
          "internalType": "uint256",
          "name": "",
          "type": "uint256"
        }
      ],
      "name": "tokenTiers",
      "outputs": [
        {
          "internalType": "string",
          "name": "uriId",
          "type": "string"
        },
        {
          "internalType": "bool",
          "name": "transferable",
          "type": "bool"
        },
        {
          "internalType": "address",
          "name": "boxToken",
          "type": "address"
        }
      ],
      "stateMutability": "view",
      "type": "function"
    },
    {
      "inputs": [
        {
          "internalType": "address",
          "name": "from",
          "type": "address"
        },
        {
          "internalType": "address",
          "name": "to",
          "type": "address"
        },
        {
          "internalType": "uint256",
          "name": "id",
          "type": "uint256"
        },
        {
          "internalType": "uint256",
          "name": "amount",
          "type": "uint256"
        }
      ],
      "name": "transferFromWithoutData",
      "outputs": [],
      "stateMutability": "nonpayable",
      "type": "function"
    },
    {
      "inputs": [
        {
          "internalType": "address",
          "name": "newOwner",
          "type": "address"
        }
      ],
      "name": "transferOwnership",
      "outputs": [],
      "stateMutability": "nonpayable",
      "type": "function"
    },
    {
      "inputs": [
        {
          "internalType": "uint256[]",
          "name": "tokenIds",
          "type": "uint256[]"
        },
        {
          "internalType": "string[]",
          "name": "uriIds",
          "type": "string[]"
        }
      ],
      "name": "updateMultipleUriIdentifiers",
      "outputs": [],
      "stateMutability": "nonpayable",
      "type": "function"
    },
    {
      "inputs": [
        {
          "internalType": "uint256",
          "name": "tokenId",
          "type": "uint256"
        },
        {
          "internalType": "bool",
          "name": "transferable",
          "type": "bool"
        }
      ],
      "name": "updateTransferableStatus",
      "outputs": [],
      "stateMutability": "nonpayable",
      "type": "function"
    },
    {
      "inputs": [
        {
          "internalType": "uint256",
          "name": "tokenId",
          "type": "uint256"
        },
        {
          "internalType": "string",
          "name": "uriId",
          "type": "string"
        }
      ],
      "name": "updateUriIdentifier",
      "outputs": [],
      "stateMutability": "nonpayable",
      "type": "function"
    },
    {
      "inputs": [
        {
          "internalType": "uint256",
          "name": "tokenId",
          "type": "uint256"
        }
      ],
      "name": "uri",
      "outputs": [
        {
          "internalType": "string",
          "name": "",
          "type": "string"
        }
      ],
      "stateMutability": "view",
      "type": "function"
    }
  ],
  "transactionHash": "0x9223821120edd68904110554d47c9dc51230a5be3312db92bdc1bc9062b9a375",
  "args": [
    "www.sphere.com/"
  ],
  "numDeployments": 1,
  "solcInputHash": "3d71d931e4efb22be285e1afa0134bde",
  "bytecode": "0x60806040523480156200001157600080fd5b5060405162005e7738038062005e7783398181016040528101906200003791906200027d565b8080620000596200004d6200007360201b60201c565b6200007b60201b60201c565b6200006a816200013f60201b60201c565b50505062000432565b600033905090565b60008060009054906101000a900473ffffffffffffffffffffffffffffffffffffffff169050816000806101000a81548173ffffffffffffffffffffffffffffffffffffffff021916908373ffffffffffffffffffffffffffffffffffffffff1602179055508173ffffffffffffffffffffffffffffffffffffffff168173ffffffffffffffffffffffffffffffffffffffff167f8be0079c531659141344cd1fd0a4f28419497f9722a3daafe3b4186f6b6457e060405160405180910390a35050565b8060039080519060200190620001579291906200015b565b5050565b828054620001699062000357565b90600052602060002090601f0160209004810192826200018d5760008555620001d9565b82601f10620001a857805160ff1916838001178555620001d9565b82800160010185558215620001d9579182015b82811115620001d8578251825591602001919060010190620001bb565b5b509050620001e89190620001ec565b5090565b5b8082111562000207576000816000905550600101620001ed565b5090565b6000620002226200021c84620002eb565b620002c2565b9050828152602081018484840111156200023b57600080fd5b6200024884828562000321565b509392505050565b600082601f8301126200026257600080fd5b8151620002748482602086016200020b565b91505092915050565b6000602082840312156200029057600080fd5b600082015167ffffffffffffffff811115620002ab57600080fd5b620002b98482850162000250565b91505092915050565b6000620002ce620002e1565b9050620002dc82826200038d565b919050565b6000604051905090565b600067ffffffffffffffff821115620003095762000308620003f2565b5b620003148262000421565b9050602081019050919050565b60005b838110156200034157808201518184015260208101905062000324565b8381111562000351576000848401525b50505050565b600060028204905060018216806200037057607f821691505b60208210811415620003875762000386620003c3565b5b50919050565b620003988262000421565b810181811067ffffffffffffffff82111715620003ba57620003b9620003f2565b5b80604052505050565b7f4e487b7100000000000000000000000000000000000000000000000000000000600052602260045260246000fd5b7f4e487b7100000000000000000000000000000000000000000000000000000000600052604160045260246000fd5b6000601f19601f8301169050919050565b615a3580620004426000396000f3fe608060405234801561001057600080fd5b50600436106101725760003560e01c8063818f2e42116100de578063c1cef73611610097578063f242432a11610071578063f242432a1461042f578063f2fde38b1461044b578063f5298aca14610467578063fa6cca101461048357610172565b8063c1cef736146103c7578063d2047b54146103e3578063e985e9c5146103ff57610172565b8063818f2e421461030757806384385b6b146103395780638da5cb5b1461035557806397c7cc8714610373578063a22cb4651461038f578063ba748698146103ab57610172565b8063351521cd11610130578063351521cd1461025b578063492d306b146102775780634e1273f4146102935780635969caf1146102c3578063715018a6146102df578063732a4d31146102e957610172565b8062fdd58e1461017757806301ffc9a7146101a7578063036789d1146101d75780630e89341c146101f3578063156e29f6146102235780632eb2c2d61461023f575b600080fd5b610191600480360381019061018c9190613f42565b61049f565b60405161019e9190614ebf565b60405180910390f35b6101c160048036038101906101bc919061422c565b610569565b6040516101ce9190614b42565b60405180910390f35b6101f160048036038101906101ec919061418e565b61064b565b005b61020d600480360381019061020891906142c3565b6107d3565b60405161021a9190614b8f565b60405180910390f35b61023d60048036038101906102389190613f7e565b61089b565b005b61025960048036038101906102549190613d55565b61092b565b005b61027560048036038101906102709190613fcd565b6109cc565b005b610291600480360381019061028c919061427e565b610bea565b005b6102ad60048036038101906102a89190614122565b610d48565b6040516102ba9190614ae9565b60405180910390f35b6102dd60048036038101906102d89190614315565b610ef9565b005b6102e76110df565b005b6102f1611167565b6040516102fe9190614ac7565b60405180910390f35b610321600480360381019061031c91906142c3565b6112c2565b60405161033093929190614bb1565b60405180910390f35b610353600480360381019061034e9190613e14565b6113a1565b005b61035d6114ef565b60405161036a91906149b3565b60405180910390f35b61038d60048036038101906103889190614351565b611518565b005b6103a960048036038101906103a49190613f06565b6115a4565b005b6103c560048036038101906103c091906140b2565b6115ba565b005b6103e160048036038101906103dc91906143a9565b6117fc565b005b6103fd60048036038101906103f89190613fcd565b611b43565b005b61041960048036038101906104149190613d19565b611d65565b6040516104269190614b42565b60405180910390f35b61044960048036038101906104449190613e77565b611df9565b005b61046560048036038101906104609190613cf0565b611f45565b005b610481600480360381019061047c9190613f7e565b61203d565b005b61049d60048036038101906104989190614071565b6120c9565b005b60008073ffffffffffffffffffffffffffffffffffffffff168373ffffffffffffffffffffffffffffffffffffffff161415610510576040517f08c379a000000000000000000000000000000000000000000000000000000000815260040161050790614c7f565b60405180910390fd5b6001600083815260200190815260200160002060008473ffffffffffffffffffffffffffffffffffffffff1673ffffffffffffffffffffffffffffffffffffffff16815260200190815260200160002054905092915050565b60007fd9b67a26000000000000000000000000000000000000000000000000000000007bffffffffffffffffffffffffffffffffffffffffffffffffffffffff1916827bffffffffffffffffffffffffffffffffffffffffffffffffffffffff1916148061063457507f0e89341c000000000000000000000000000000000000000000000000000000007bffffffffffffffffffffffffffffffffffffffffffffffffffffffff1916827bffffffffffffffffffffffffffffffffffffffffffffffffffffffff1916145b806106445750610643826122a9565b5b9050919050565b610653612313565b73ffffffffffffffffffffffffffffffffffffffff166106716114ef565b73ffffffffffffffffffffffffffffffffffffffff16146106c7576040517f08c379a00000000000000000000000000000000000000000000000000000000081526004016106be90614dbf565b60405180910390fd5b81819050848490501461070f576040517f08c379a000000000000000000000000000000000000000000000000000000000815260040161070690614cdf565b60405180910390fd5b60005b848490508160ff1610156107cc576107b985858360ff1681811061075f577f4e487b7100000000000000000000000000000000000000000000000000000000600052603260045260246000fd5b9050602002013584848460ff168181106107a2577f4e487b7100000000000000000000000000000000000000000000000000000000600052603260045260246000fd5b90506020028101906107b49190614f03565b61231b565b80806107c4906152cb565b915050610712565b5050505050565b606060006107e08361251f565b90506108936004600085815260200190815260200160002060000180546108069061521f565b80601f01602080910402602001604051908101604052809291908181526020018280546108329061521f565b801561087f5780601f106108545761010080835404028352916020019161087f565b820191906000526020600020905b81548152906001019060200180831161086257829003601f168201915b5050505050826125b390919063ffffffff16565b915050919050565b6108a3612313565b73ffffffffffffffffffffffffffffffffffffffff166108c16114ef565b73ffffffffffffffffffffffffffffffffffffffff1614610917576040517f08c379a000000000000000000000000000000000000000000000000000000000815260040161090e90614dbf565b60405180910390fd5b6060610925848484846125df565b50505050565b610933612313565b73ffffffffffffffffffffffffffffffffffffffff168573ffffffffffffffffffffffffffffffffffffffff161480610979575061097885610973612313565b611d65565b5b6109b8576040517f08c379a00000000000000000000000000000000000000000000000000000000081526004016109af90614d3f565b60405180910390fd5b6109c585858585856126da565b5050505050565b6109d4612313565b73ffffffffffffffffffffffffffffffffffffffff166109f26114ef565b73ffffffffffffffffffffffffffffffffffffffff1614610a48576040517f08c379a0000000000000000000000000000000000000000000000000000000008152600401610a3f90614dbf565b60405180910390fd5b85858585858580806020026020016040519081016040528093929190818152602001838360200280828437600081840152601f19601f820116905080830192505050505050508282905085859050148015610aa65750805183839050145b610ae5576040517f08c379a0000000000000000000000000000000000000000000000000000000008152600401610adc90614cdf565b60405180910390fd5b60005b8b8b9050811015610bdc57610bc98c8c83818110610b2f577f4e487b7100000000000000000000000000000000000000000000000000000000600052603260045260246000fd5b9050602002016020810190610b449190613cf0565b8b8b84818110610b7d577f4e487b7100000000000000000000000000000000000000000000000000000000600052603260045260246000fd5b905060200201358a8a85818110610bbd577f4e487b7100000000000000000000000000000000000000000000000000000000600052603260045260246000fd5b90506020020135612a3d565b8080610bd490615282565b915050610ae8565b505050505050505050505050565b610bf2612313565b73ffffffffffffffffffffffffffffffffffffffff16610c106114ef565b73ffffffffffffffffffffffffffffffffffffffff1614610c66576040517f08c379a0000000000000000000000000000000000000000000000000000000008152600401610c5d90614dbf565b60405180910390fd5b8181610cb582828080601f016020809104026020016040519081016040528093929190818152602001838380828437600081840152601f19601f82011690508083019250505050505050612b36565b15610cf5576040517f08c379a0000000000000000000000000000000000000000000000000000000008152600401610cec90614e9f565b60405180910390fd5b610d4284848080601f016020809104026020016040519081016040528093929190818152602001838380828437600081840152601f19601f82011690508083019250505050505050612b43565b50505050565b60608151835114610d8e576040517f08c379a0000000000000000000000000000000000000000000000000000000008152600401610d8590614dff565b60405180910390fd5b6000835167ffffffffffffffff811115610dd1577f4e487b7100000000000000000000000000000000000000000000000000000000600052604160045260246000fd5b604051908082528060200260200182016040528015610dff5781602001602082028036833780820191505090505b50905060005b8451811015610eee57610e98858281518110610e4a577f4e487b7100000000000000000000000000000000000000000000000000000000600052603260045260246000fd5b6020026020010151858381518110610e8b577f4e487b7100000000000000000000000000000000000000000000000000000000600052603260045260246000fd5b602002602001015161049f565b828281518110610ed1577f4e487b7100000000000000000000000000000000000000000000000000000000600052603260045260246000fd5b60200260200101818152505080610ee790615282565b9050610e05565b508091505092915050565b610f01612313565b73ffffffffffffffffffffffffffffffffffffffff16610f1f6114ef565b73ffffffffffffffffffffffffffffffffffffffff1614610f75576040517f08c379a0000000000000000000000000000000000000000000000000000000008152600401610f6c90614dbf565b60405180910390fd5b8161101d600460008381526020019081526020016000206000018054610f9a9061521f565b80601f0160208091040260200160405190810160405280929190818152602001828054610fc69061521f565b80156110135780601f10610fe857610100808354040283529160200191611013565b820191906000526020600020905b815481529060010190602001808311610ff657829003601f168201915b5050505050612b36565b1561105d576040517f08c379a000000000000000000000000000000000000000000000000000000000815260040161105490614cff565b60405180910390fd5b816004600085815260200190815260200160002060010160006101000a81548160ff021916908315150217905550827f684099fd398949dc782e92c48c5b6b47f1e1f6cadc408d22d5159752d6c4bced60046000868152602001908152602001600020600001846040516110d2929190614bef565b60405180910390a2505050565b6110e7612313565b73ffffffffffffffffffffffffffffffffffffffff166111056114ef565b73ffffffffffffffffffffffffffffffffffffffff161461115b576040517f08c379a000000000000000000000000000000000000000000000000000000000815260040161115290614dbf565b60405180910390fd5b6111656000612b5d565b565b606060065467ffffffffffffffff8111156111ab577f4e487b7100000000000000000000000000000000000000000000000000000000600052604160045260246000fd5b6040519080825280602002602001820160405280156111d95781602001602082028036833780820191505090505b5090506000600190505b6006548160ff16116112be57600460008260ff16815260200190815260200160002060010160019054906101000a900473ffffffffffffffffffffffffffffffffffffffff16826001836112379190615128565b60ff1681518110611271577f4e487b7100000000000000000000000000000000000000000000000000000000600052603260045260246000fd5b602002602001019073ffffffffffffffffffffffffffffffffffffffff16908173ffffffffffffffffffffffffffffffffffffffff168152505080806112b6906152cb565b9150506111e3565b5090565b60046020528060005260406000206000915090508060000180546112e59061521f565b80601f01602080910402602001604051908101604052809291908181526020018280546113119061521f565b801561135e5780601f106113335761010080835404028352916020019161135e565b820191906000526020600020905b81548152906001019060200180831161134157829003601f168201915b5050505050908060010160009054906101000a900460ff16908060010160019054906101000a900473ffffffffffffffffffffffffffffffffffffffff16905083565b81846004600083815260200190815260200160002060010160009054906101000a900460ff16611406576040517f08c379a00000000000000000000000000000000000000000000000000000000081526004016113fd90614e3f565b60405180910390fd5b61140e612313565b73ffffffffffffffffffffffffffffffffffffffff1661142c6114ef565b73ffffffffffffffffffffffffffffffffffffffff1614806114805750611451612313565b73ffffffffffffffffffffffffffffffffffffffff168173ffffffffffffffffffffffffffffffffffffffff16145b80611498575061149781611492612313565b611d65565b5b6114d7576040517f08c379a00000000000000000000000000000000000000000000000000000000081526004016114ce90614c5f565b60405180910390fd5b60606114e68787878785612c21565b50505050505050565b60008060009054906101000a900473ffffffffffffffffffffffffffffffffffffffff16905090565b611520612313565b73ffffffffffffffffffffffffffffffffffffffff1661153e6114ef565b73ffffffffffffffffffffffffffffffffffffffff1614611594576040517f08c379a000000000000000000000000000000000000000000000000000000000815260040161158b90614dbf565b60405180910390fd5b61159f83838361231b565b505050565b6115b66115af612313565b8383612ea6565b5050565b6115c2612313565b73ffffffffffffffffffffffffffffffffffffffff166115e06114ef565b73ffffffffffffffffffffffffffffffffffffffff1614611636576040517f08c379a000000000000000000000000000000000000000000000000000000000815260040161162d90614dbf565b60405180910390fd5b6000600654905060005b84518160ff1610156117ee576000858260ff168151811061168a577f4e487b7100000000000000000000000000000000000000000000000000000000600052603260045260246000fd5b602002602001015190506000600560008373ffffffffffffffffffffffffffffffffffffffff1673ffffffffffffffffffffffffffffffffffffffff1681526020019081526020016000205414611716576040517f08c379a000000000000000000000000000000000000000000000000000000000815260040161170d90614d5f565b60405180910390fd5b60018361172391906150d2565b600560008373ffffffffffffffffffffffffffffffffffffffff1673ffffffffffffffffffffffffffffffffffffffff168152602001908152602001600020819055506117cc60018461177691906150d2565b86868560ff168181106117b2577f4e487b7100000000000000000000000000000000000000000000000000000000600052603260045260246000fd5b90506020028101906117c49190614f03565b6000856117fc565b82806117d790615282565b9350505080806117e6906152cb565b915050611640565b508060068190555050505050565b611804612313565b73ffffffffffffffffffffffffffffffffffffffff166118226114ef565b73ffffffffffffffffffffffffffffffffffffffff1614611878576040517f08c379a000000000000000000000000000000000000000000000000000000000815260040161186f90614dbf565b60405180910390fd5b83836118c782828080601f016020809104026020016040519081016040528093929190818152602001838380828437600081840152601f19601f82011690508083019250505050505050612b36565b15611907576040517f08c379a00000000000000000000000000000000000000000000000000000000081526004016118fe90614e9f565b60405180910390fd5b6119ae60046000898152602001908152602001600020600001805461192b9061521f565b80601f01602080910402602001604051908101604052809291908181526020018280546119579061521f565b80156119a45780601f10611979576101008083540402835291602001916119a4565b820191906000526020600020905b81548152906001019060200180831161198757829003601f168201915b5050505050612b36565b6119ed576040517f08c379a00000000000000000000000000000000000000000000000000000000081526004016119e490614e7f565b60405180910390fd5b604051806060016040528087878080601f016020809104026020016040519081016040528093929190818152602001838380828437600081840152601f19601f82011690508083019250505050505050815260200185151581526020018473ffffffffffffffffffffffffffffffffffffffff16815250600460008981526020019081526020016000206000820151816000019080519060200190611a93929190613878565b5060208201518160010160006101000a81548160ff02191690831515021790555060408201518160010160016101000a81548173ffffffffffffffffffffffffffffffffffffffff021916908373ffffffffffffffffffffffffffffffffffffffff160217905550905050867f684099fd398949dc782e92c48c5b6b47f1e1f6cadc408d22d5159752d6c4bced878787604051611b3293929190614b5d565b60405180910390a250505050505050565b611b4b612313565b73ffffffffffffffffffffffffffffffffffffffff16611b696114ef565b73ffffffffffffffffffffffffffffffffffffffff1614611bbf576040517f08c379a0000000000000000000000000000000000000000000000000000000008152600401611bb690614dbf565b60405180910390fd5b85858585858580806020026020016040519081016040528093929190818152602001838360200280828437600081840152601f19601f820116905080830192505050505050508282905085859050148015611c1d5750805183839050145b611c5c576040517f08c379a0000000000000000000000000000000000000000000000000000000008152600401611c5390614cdf565b60405180910390fd5b606060005b8c8c9050811015611d5657611d438d8d83818110611ca8577f4e487b7100000000000000000000000000000000000000000000000000000000600052603260045260246000fd5b9050602002016020810190611cbd9190613cf0565b8c8c84818110611cf6577f4e487b7100000000000000000000000000000000000000000000000000000000600052603260045260246000fd5b905060200201358b8b85818110611d36577f4e487b7100000000000000000000000000000000000000000000000000000000600052603260045260246000fd5b90506020020135856125df565b8080611d4e90615282565b915050611c61565b50505050505050505050505050565b6000600260008473ffffffffffffffffffffffffffffffffffffffff1673ffffffffffffffffffffffffffffffffffffffff16815260200190815260200160002060008373ffffffffffffffffffffffffffffffffffffffff1673ffffffffffffffffffffffffffffffffffffffff16815260200190815260200160002060009054906101000a900460ff16905092915050565b82856004600083815260200190815260200160002060010160009054906101000a900460ff16611e5e576040517f08c379a0000000000000000000000000000000000000000000000000000000008152600401611e5590614e3f565b60405180910390fd5b611e66612313565b73ffffffffffffffffffffffffffffffffffffffff16611e846114ef565b73ffffffffffffffffffffffffffffffffffffffff161480611ed85750611ea9612313565b73ffffffffffffffffffffffffffffffffffffffff168173ffffffffffffffffffffffffffffffffffffffff16145b80611ef05750611eef81611eea612313565b611d65565b5b611f2f576040517f08c379a0000000000000000000000000000000000000000000000000000000008152600401611f2690614c5f565b60405180910390fd5b611f3c8787878787612c21565b50505050505050565b611f4d612313565b73ffffffffffffffffffffffffffffffffffffffff16611f6b6114ef565b73ffffffffffffffffffffffffffffffffffffffff1614611fc1576040517f08c379a0000000000000000000000000000000000000000000000000000000008152600401611fb890614dbf565b60405180910390fd5b600073ffffffffffffffffffffffffffffffffffffffff168173ffffffffffffffffffffffffffffffffffffffff161415612031576040517f08c379a000000000000000000000000000000000000000000000000000000000815260040161202890614c9f565b60405180910390fd5b61203a81612b5d565b50565b612045612313565b73ffffffffffffffffffffffffffffffffffffffff166120636114ef565b73ffffffffffffffffffffffffffffffffffffffff16146120b9576040517f08c379a00000000000000000000000000000000000000000000000000000000081526004016120b090614dbf565b60405180910390fd5b6120c4838383612a3d565b505050565b60606000805b83518160ff1610156122a357838160ff1681518110612117577f4e487b7100000000000000000000000000000000000000000000000000000000600052603260045260246000fd5b6020026020010151915060008273ffffffffffffffffffffffffffffffffffffffff166370a08231336040518263ffffffff1660e01b815260040161215c91906149b3565b60206040518083038186803b15801561217457600080fd5b505afa158015612188573d6000803e3d6000fd5b505050506040513d601f19601f820116820180604052508101906121ac91906142ec565b90506000600560008573ffffffffffffffffffffffffffffffffffffffff1673ffffffffffffffffffffffffffffffffffffffff1681526020019081526020016000205490508373ffffffffffffffffffffffffffffffffffffffff166323b872dd3330856040518463ffffffff1660e01b815260040161222f93929190614a36565b602060405180830381600087803b15801561224957600080fd5b505af115801561225d573d6000803e3d6000fd5b505050506040513d601f19601f820116820180604052508101906122819190614203565b5061228e338284886125df565b5050808061229b906152cb565b9150506120cf565b50505050565b60007f01ffc9a7000000000000000000000000000000000000000000000000000000007bffffffffffffffffffffffffffffffffffffffffffffffffffffffff1916827bffffffffffffffffffffffffffffffffffffffffffffffffffffffff1916149050919050565b600033905090565b826123c36004600083815260200190815260200160002060000180546123409061521f565b80601f016020809104026020016040519081016040528092919081815260200182805461236c9061521f565b80156123b95780601f1061238e576101008083540402835291602001916123b9565b820191906000526020600020905b81548152906001019060200180831161239c57829003601f168201915b5050505050612b36565b15612403576040517f08c379a00000000000000000000000000000000000000000000000000000000081526004016123fa90614cff565b60405180910390fd5b828261245282828080601f016020809104026020016040519081016040528093929190818152602001838380828437600081840152601f19601f82011690508083019250505050505050612b36565b15612492576040517f08c379a000000000000000000000000000000000000000000000000000000000815260040161248990614e9f565b60405180910390fd5b84846004600089815260200190815260200160002060000191906124b79291906138fe565b50857f684099fd398949dc782e92c48c5b6b47f1e1f6cadc408d22d5159752d6c4bced8686600460008b815260200190815260200160002060010160009054906101000a900460ff1660405161250f93929190614b5d565b60405180910390a2505050505050565b60606003805461252e9061521f565b80601f016020809104026020016040519081016040528092919081815260200182805461255a9061521f565b80156125a75780601f1061257c576101008083540402835291602001916125a7565b820191906000526020600020905b81548152906001019060200180831161258a57829003601f168201915b50505050509050919050565b606082826040516020016125c892919061498f565b604051602081830303815290604052905092915050565b826126876004600083815260200190815260200160002060000180546126049061521f565b80601f01602080910402602001604051908101604052809291908181526020018280546126309061521f565b801561267d5780601f106126525761010080835404028352916020019161267d565b820191906000526020600020905b81548152906001019060200180831161266057829003601f168201915b5050505050612b36565b156126c7576040517f08c379a00000000000000000000000000000000000000000000000000000000081526004016126be90614cff565b60405180910390fd5b6126d385858585613013565b5050505050565b815183511461271e576040517f08c379a000000000000000000000000000000000000000000000000000000000815260040161271590614e1f565b60405180910390fd5b600073ffffffffffffffffffffffffffffffffffffffff168473ffffffffffffffffffffffffffffffffffffffff16141561278e576040517f08c379a000000000000000000000000000000000000000000000000000000000815260040161278590614d1f565b60405180910390fd5b6000612798612313565b90506127a88187878787876131aa565b60005b84518110156129a85760008582815181106127ef577f4e487b7100000000000000000000000000000000000000000000000000000000600052603260045260246000fd5b602002602001015190506000858381518110612834577f4e487b7100000000000000000000000000000000000000000000000000000000600052603260045260246000fd5b6020026020010151905060006001600084815260200190815260200160002060008b73ffffffffffffffffffffffffffffffffffffffff1673ffffffffffffffffffffffffffffffffffffffff168152602001908152602001600020549050818110156128d6576040517f08c379a00000000000000000000000000000000000000000000000000000000081526004016128cd90614d9f565b60405180910390fd5b8181036001600085815260200190815260200160002060008c73ffffffffffffffffffffffffffffffffffffffff1673ffffffffffffffffffffffffffffffffffffffff16815260200190815260200160002081905550816001600085815260200190815260200160002060008b73ffffffffffffffffffffffffffffffffffffffff1673ffffffffffffffffffffffffffffffffffffffff168152602001908152602001600020600082825461298d91906150d2565b92505081905550505050806129a190615282565b90506127ab565b508473ffffffffffffffffffffffffffffffffffffffff168673ffffffffffffffffffffffffffffffffffffffff168273ffffffffffffffffffffffffffffffffffffffff167f4a39dc06d4c0dbc64b70af90fd698a233a518aa5d07e595d983b8c0526c8f7fb8787604051612a1f929190614b0b565b60405180910390a4612a358187878787876131b2565b505050505050565b81612ae5600460008381526020019081526020016000206000018054612a629061521f565b80601f0160208091040260200160405190810160405280929190818152602001828054612a8e9061521f565b8015612adb5780601f10612ab057610100808354040283529160200191612adb565b820191906000526020600020905b815481529060010190602001808311612abe57829003601f168201915b5050505050612b36565b15612b25576040517f08c379a0000000000000000000000000000000000000000000000000000000008152600401612b1c90614cff565b60405180910390fd5b612b30848484613399565b50505050565b6000808251149050919050565b8060039080519060200190612b59929190613878565b5050565b60008060009054906101000a900473ffffffffffffffffffffffffffffffffffffffff169050816000806101000a81548173ffffffffffffffffffffffffffffffffffffffff021916908373ffffffffffffffffffffffffffffffffffffffff1602179055508173ffffffffffffffffffffffffffffffffffffffff168173ffffffffffffffffffffffffffffffffffffffff167f8be0079c531659141344cd1fd0a4f28419497f9722a3daafe3b4186f6b6457e060405160405180910390a35050565b600073ffffffffffffffffffffffffffffffffffffffff168473ffffffffffffffffffffffffffffffffffffffff161415612c91576040517f08c379a0000000000000000000000000000000000000000000000000000000008152600401612c8890614d1f565b60405180910390fd5b6000612c9b612313565b9050612cbb818787612cac886135b8565b612cb5886135b8565b876131aa565b60006001600086815260200190815260200160002060008873ffffffffffffffffffffffffffffffffffffffff1673ffffffffffffffffffffffffffffffffffffffff16815260200190815260200160002054905083811015612d53576040517f08c379a0000000000000000000000000000000000000000000000000000000008152600401612d4a90614d9f565b60405180910390fd5b8381036001600087815260200190815260200160002060008973ffffffffffffffffffffffffffffffffffffffff1673ffffffffffffffffffffffffffffffffffffffff16815260200190815260200160002081905550836001600087815260200190815260200160002060008873ffffffffffffffffffffffffffffffffffffffff1673ffffffffffffffffffffffffffffffffffffffff1681526020019081526020016000206000828254612e0a91906150d2565b925050819055508573ffffffffffffffffffffffffffffffffffffffff168773ffffffffffffffffffffffffffffffffffffffff168373ffffffffffffffffffffffffffffffffffffffff167fc3d58168c5ae7397731d063d5bbf3d657854427343f4c083240f7aacaa2d0f628888604051612e87929190614eda565b60405180910390a4612e9d82888888888861367e565b50505050505050565b8173ffffffffffffffffffffffffffffffffffffffff168373ffffffffffffffffffffffffffffffffffffffff161415612f15576040517f08c379a0000000000000000000000000000000000000000000000000000000008152600401612f0c90614ddf565b60405180910390fd5b80600260008573ffffffffffffffffffffffffffffffffffffffff1673ffffffffffffffffffffffffffffffffffffffff16815260200190815260200160002060008473ffffffffffffffffffffffffffffffffffffffff1673ffffffffffffffffffffffffffffffffffffffff16815260200190815260200160002060006101000a81548160ff0219169083151502179055508173ffffffffffffffffffffffffffffffffffffffff168373ffffffffffffffffffffffffffffffffffffffff167f17307eab39ab6107e8899845ad3d59bd9653f200f220920489ca2b5937696c31836040516130069190614b42565b60405180910390a3505050565b600073ffffffffffffffffffffffffffffffffffffffff168473ffffffffffffffffffffffffffffffffffffffff161415613083576040517f08c379a000000000000000000000000000000000000000000000000000000000815260040161307a90614e5f565b60405180910390fd5b600061308d612313565b90506130ae8160008761309f886135b8565b6130a8886135b8565b876131aa565b826001600086815260200190815260200160002060008773ffffffffffffffffffffffffffffffffffffffff1673ffffffffffffffffffffffffffffffffffffffff168152602001908152602001600020600082825461310e91906150d2565b925050819055508473ffffffffffffffffffffffffffffffffffffffff16600073ffffffffffffffffffffffffffffffffffffffff168273ffffffffffffffffffffffffffffffffffffffff167fc3d58168c5ae7397731d063d5bbf3d657854427343f4c083240f7aacaa2d0f62878760405161318c929190614eda565b60405180910390a46131a38160008787878761367e565b5050505050565b505050505050565b6131d18473ffffffffffffffffffffffffffffffffffffffff16613865565b15613391578373ffffffffffffffffffffffffffffffffffffffff1663bc197c8187878686866040518663ffffffff1660e01b81526004016132179594939291906149ce565b602060405180830381600087803b15801561323157600080fd5b505af192505050801561326257506040513d601f19601f8201168201806040525081019061325f9190614255565b60015b6133085761326e615382565b806308c379a014156132cb575061328361590d565b8061328e57506132cd565b806040517f08c379a00000000000000000000000000000000000000000000000000000000081526004016132c29190614b8f565b60405180910390fd5b505b6040517f08c379a00000000000000000000000000000000000000000000000000000000081526004016132ff90614c1f565b60405180910390fd5b63bc197c8160e01b7bffffffffffffffffffffffffffffffffffffffffffffffffffffffff1916817bffffffffffffffffffffffffffffffffffffffffffffffffffffffff19161461338f576040517f08c379a000000000000000000000000000000000000000000000000000000000815260040161338690614c3f565b60405180910390fd5b505b505050505050565b600073ffffffffffffffffffffffffffffffffffffffff168373ffffffffffffffffffffffffffffffffffffffff161415613409576040517f08c379a000000000000000000000000000000000000000000000000000000000815260040161340090614d7f565b60405180910390fd5b6000613413612313565b905061344381856000613425876135b8565b61342e876135b8565b604051806020016040528060008152506131aa565b60006001600085815260200190815260200160002060008673ffffffffffffffffffffffffffffffffffffffff1673ffffffffffffffffffffffffffffffffffffffff168152602001908152602001600020549050828110156134db576040517f08c379a00000000000000000000000000000000000000000000000000000000081526004016134d290614cbf565b60405180910390fd5b8281036001600086815260200190815260200160002060008773ffffffffffffffffffffffffffffffffffffffff1673ffffffffffffffffffffffffffffffffffffffff16815260200190815260200160002081905550600073ffffffffffffffffffffffffffffffffffffffff168573ffffffffffffffffffffffffffffffffffffffff168373ffffffffffffffffffffffffffffffffffffffff167fc3d58168c5ae7397731d063d5bbf3d657854427343f4c083240f7aacaa2d0f6287876040516135a9929190614eda565b60405180910390a45050505050565b60606000600167ffffffffffffffff8111156135fd577f4e487b7100000000000000000000000000000000000000000000000000000000600052604160045260246000fd5b60405190808252806020026020018201604052801561362b5781602001602082028036833780820191505090505b5090508281600081518110613669577f4e487b7100000000000000000000000000000000000000000000000000000000600052603260045260246000fd5b60200260200101818152505080915050919050565b61369d8473ffffffffffffffffffffffffffffffffffffffff16613865565b1561385d578373ffffffffffffffffffffffffffffffffffffffff1663f23a6e6187878686866040518663ffffffff1660e01b81526004016136e3959493929190614a6d565b602060405180830381600087803b1580156136fd57600080fd5b505af192505050801561372e57506040513d601f19601f8201168201806040525081019061372b9190614255565b60015b6137d45761373a615382565b806308c379a01415613797575061374f61590d565b8061375a5750613799565b806040517f08c379a000000000000000000000000000000000000000000000000000000000815260040161378e9190614b8f565b60405180910390fd5b505b6040517f08c379a00000000000000000000000000000000000000000000000000000000081526004016137cb90614c1f565b60405180910390fd5b63f23a6e6160e01b7bffffffffffffffffffffffffffffffffffffffffffffffffffffffff1916817bffffffffffffffffffffffffffffffffffffffffffffffffffffffff19161461385b576040517f08c379a000000000000000000000000000000000000000000000000000000000815260040161385290614c3f565b60405180910390fd5b505b505050505050565b600080823b905060008111915050919050565b8280546138849061521f565b90600052602060002090601f0160209004810192826138a657600085556138ed565b82601f106138bf57805160ff19168380011785556138ed565b828001600101855582156138ed579182015b828111156138ec5782518255916020019190600101906138d1565b5b5090506138fa9190613984565b5090565b82805461390a9061521f565b90600052602060002090601f01602090048101928261392c5760008555613973565b82601f1061394557803560ff1916838001178555613973565b82800160010185558215613973579182015b82811115613972578235825591602001919060010190613957565b5b5090506139809190613984565b5090565b5b8082111561399d576000816000905550600101613985565b5090565b60006139b46139af84614f7f565b614f5a565b905080838252602082019050828560208602820111156139d357600080fd5b60005b85811015613a0357816139e98882613ab7565b8452602084019350602083019250506001810190506139d6565b5050509392505050565b6000613a20613a1b84614fab565b614f5a565b90508083825260208201905082856020860282011115613a3f57600080fd5b60005b85811015613a6f5781613a558882613cc6565b845260208401935060208301925050600181019050613a42565b5050509392505050565b6000613a8c613a8784614fd7565b614f5a565b905082815260208101848484011115613aa457600080fd5b613aaf8482856151dd565b509392505050565b600081359050613ac6816159a3565b92915050565b60008083601f840112613ade57600080fd5b8235905067ffffffffffffffff811115613af757600080fd5b602083019150836020820283011115613b0f57600080fd5b9250929050565b600082601f830112613b2757600080fd5b8135613b378482602086016139a1565b91505092915050565b60008083601f840112613b5257600080fd5b8235905067ffffffffffffffff811115613b6b57600080fd5b602083019150836020820283011115613b8357600080fd5b9250929050565b60008083601f840112613b9c57600080fd5b8235905067ffffffffffffffff811115613bb557600080fd5b602083019150836020820283011115613bcd57600080fd5b9250929050565b600082601f830112613be557600080fd5b8135613bf5848260208601613a0d565b91505092915050565b600081359050613c0d816159ba565b92915050565b600081519050613c22816159ba565b92915050565b600081359050613c37816159d1565b92915050565b600081519050613c4c816159d1565b92915050565b600082601f830112613c6357600080fd5b8135613c73848260208601613a79565b91505092915050565b60008083601f840112613c8e57600080fd5b8235905067ffffffffffffffff811115613ca757600080fd5b602083019150836001820283011115613cbf57600080fd5b9250929050565b600081359050613cd5816159e8565b92915050565b600081519050613cea816159e8565b92915050565b600060208284031215613d0257600080fd5b6000613d1084828501613ab7565b91505092915050565b60008060408385031215613d2c57600080fd5b6000613d3a85828601613ab7565b9250506020613d4b85828601613ab7565b9150509250929050565b600080600080600060a08688031215613d6d57600080fd5b6000613d7b88828901613ab7565b9550506020613d8c88828901613ab7565b945050604086013567ffffffffffffffff811115613da957600080fd5b613db588828901613bd4565b935050606086013567ffffffffffffffff811115613dd257600080fd5b613dde88828901613bd4565b925050608086013567ffffffffffffffff811115613dfb57600080fd5b613e0788828901613c52565b9150509295509295909350565b60008060008060808587031215613e2a57600080fd5b6000613e3887828801613ab7565b9450506020613e4987828801613ab7565b9350506040613e5a87828801613cc6565b9250506060613e6b87828801613cc6565b91505092959194509250565b600080600080600060a08688031215613e8f57600080fd5b6000613e9d88828901613ab7565b9550506020613eae88828901613ab7565b9450506040613ebf88828901613cc6565b9350506060613ed088828901613cc6565b925050608086013567ffffffffffffffff811115613eed57600080fd5b613ef988828901613c52565b9150509295509295909350565b60008060408385031215613f1957600080fd5b6000613f2785828601613ab7565b9250506020613f3885828601613bfe565b9150509250929050565b60008060408385031215613f5557600080fd5b6000613f6385828601613ab7565b9250506020613f7485828601613cc6565b9150509250929050565b600080600060608486031215613f9357600080fd5b6000613fa186828701613ab7565b9350506020613fb286828701613cc6565b9250506040613fc386828701613cc6565b9150509250925092565b60008060008060008060608789031215613fe657600080fd5b600087013567ffffffffffffffff81111561400057600080fd5b61400c89828a01613acc565b9650965050602087013567ffffffffffffffff81111561402b57600080fd5b61403789828a01613b8a565b9450945050604087013567ffffffffffffffff81111561405657600080fd5b61406289828a01613b8a565b92509250509295509295509295565b60006020828403121561408357600080fd5b600082013567ffffffffffffffff81111561409d57600080fd5b6140a984828501613b16565b91505092915050565b6000806000604084860312156140c757600080fd5b600084013567ffffffffffffffff8111156140e157600080fd5b6140ed86828701613b16565b935050602084013567ffffffffffffffff81111561410a57600080fd5b61411686828701613b40565b92509250509250925092565b6000806040838503121561413557600080fd5b600083013567ffffffffffffffff81111561414f57600080fd5b61415b85828601613b16565b925050602083013567ffffffffffffffff81111561417857600080fd5b61418485828601613bd4565b9150509250929050565b600080600080604085870312156141a457600080fd5b600085013567ffffffffffffffff8111156141be57600080fd5b6141ca87828801613b8a565b9450945050602085013567ffffffffffffffff8111156141e957600080fd5b6141f587828801613b40565b925092505092959194509250565b60006020828403121561421557600080fd5b600061422384828501613c13565b91505092915050565b60006020828403121561423e57600080fd5b600061424c84828501613c28565b91505092915050565b60006020828403121561426757600080fd5b600061427584828501613c3d565b91505092915050565b6000806020838503121561429157600080fd5b600083013567ffffffffffffffff8111156142ab57600080fd5b6142b785828601613c7c565b92509250509250929050565b6000602082840312156142d557600080fd5b60006142e384828501613cc6565b91505092915050565b6000602082840312156142fe57600080fd5b600061430c84828501613cdb565b91505092915050565b6000806040838503121561432857600080fd5b600061433685828601613cc6565b925050602061434785828601613bfe565b9150509250929050565b60008060006040848603121561436657600080fd5b600061437486828701613cc6565b935050602084013567ffffffffffffffff81111561439157600080fd5b61439d86828701613c7c565b92509250509250925092565b6000806000806000608086880312156143c157600080fd5b60006143cf88828901613cc6565b955050602086013567ffffffffffffffff8111156143ec57600080fd5b6143f888828901613c7c565b9450945050604061440b88828901613bfe565b925050606061441c88828901613ab7565b9150509295509295909350565b60006144358383614459565b60208301905092915050565b600061444d8383614971565b60208301905092915050565b6144628161515c565b82525050565b6144718161515c565b82525050565b60006144828261503d565b61448c8185615083565b935061449783615008565b8060005b838110156144c85781516144af8882614429565b97506144ba83615069565b92505060018101905061449b565b5085935050505092915050565b60006144e082615048565b6144ea8185615094565b93506144f583615018565b8060005b8381101561452657815161450d8882614441565b975061451883615076565b9250506001810190506144f9565b5085935050505092915050565b61453c8161516e565b82525050565b600061454d82615053565b61455781856150a5565b93506145678185602086016151ec565b614570816153a4565b840191505092915050565b600061458783856150b6565b93506145948385846151dd565b61459d836153a4565b840190509392505050565b60006145b38261505e565b6145bd81856150b6565b93506145cd8185602086016151ec565b6145d6816153a4565b840191505092915050565b60006145ec8261505e565b6145f681856150c7565b93506146068185602086016151ec565b80840191505092915050565b6000815461461f8161521f565b61462981866150b6565b94506001821660008114614644576001811461465657614689565b60ff1983168652602086019350614689565b61465f85615028565b60005b8381101561468157815481890152600182019150602081019050614662565b808801955050505b50505092915050565b600061469f6034836150b6565b91506146aa826153c2565b604082019050919050565b60006146c26028836150b6565b91506146cd82615411565b604082019050919050565b60006146e5600c836150b6565b91506146f082615460565b602082019050919050565b6000614708602b836150b6565b915061471382615489565b604082019050919050565b600061472b6026836150b6565b9150614736826154d8565b604082019050919050565b600061474e6024836150b6565b915061475982615527565b604082019050919050565b60006147716014836150b6565b915061477c82615576565b602082019050919050565b60006147946013836150b6565b915061479f8261559f565b602082019050919050565b60006147b76025836150b6565b91506147c2826155c8565b604082019050919050565b60006147da6032836150b6565b91506147e582615617565b604082019050919050565b60006147fd600f836150b6565b915061480882615666565b602082019050919050565b60006148206023836150b6565b915061482b8261568f565b604082019050919050565b6000614843602a836150b6565b915061484e826156de565b604082019050919050565b60006148666020836150b6565b91506148718261572d565b602082019050919050565b60006148896029836150b6565b915061489482615756565b604082019050919050565b60006148ac6029836150b6565b91506148b7826157a5565b604082019050919050565b60006148cf6028836150b6565b91506148da826157f4565b604082019050919050565b60006148f2601f836150b6565b91506148fd82615843565b602082019050919050565b60006149156021836150b6565b91506149208261586c565b604082019050919050565b6000614938601f836150b6565b9150614943826158bb565b602082019050919050565b600061495b6016836150b6565b9150614966826158e4565b602082019050919050565b61497a816151c6565b82525050565b614989816151c6565b82525050565b600061499b82856145e1565b91506149a782846145e1565b91508190509392505050565b60006020820190506149c86000830184614468565b92915050565b600060a0820190506149e36000830188614468565b6149f06020830187614468565b8181036040830152614a0281866144d5565b90508181036060830152614a1681856144d5565b90508181036080830152614a2a8184614542565b90509695505050505050565b6000606082019050614a4b6000830186614468565b614a586020830185614468565b614a656040830184614980565b949350505050565b600060a082019050614a826000830188614468565b614a8f6020830187614468565b614a9c6040830186614980565b614aa96060830185614980565b8181036080830152614abb8184614542565b90509695505050505050565b60006020820190508181036000830152614ae18184614477565b905092915050565b60006020820190508181036000830152614b0381846144d5565b905092915050565b60006040820190508181036000830152614b2581856144d5565b90508181036020830152614b3981846144d5565b90509392505050565b6000602082019050614b576000830184614533565b92915050565b60006040820190508181036000830152614b7881858761457b565b9050614b876020830184614533565b949350505050565b60006020820190508181036000830152614ba981846145a8565b905092915050565b60006060820190508181036000830152614bcb81866145a8565b9050614bda6020830185614533565b614be76040830184614468565b949350505050565b60006040820190508181036000830152614c098185614612565b9050614c186020830184614533565b9392505050565b60006020820190508181036000830152614c3881614692565b9050919050565b60006020820190508181036000830152614c58816146b5565b9050919050565b60006020820190508181036000830152614c78816146d8565b9050919050565b60006020820190508181036000830152614c98816146fb565b9050919050565b60006020820190508181036000830152614cb88161471e565b9050919050565b60006020820190508181036000830152614cd881614741565b9050919050565b60006020820190508181036000830152614cf881614764565b9050919050565b60006020820190508181036000830152614d1881614787565b9050919050565b60006020820190508181036000830152614d38816147aa565b9050919050565b60006020820190508181036000830152614d58816147cd565b9050919050565b60006020820190508181036000830152614d78816147f0565b9050919050565b60006020820190508181036000830152614d9881614813565b9050919050565b60006020820190508181036000830152614db881614836565b9050919050565b60006020820190508181036000830152614dd881614859565b9050919050565b60006020820190508181036000830152614df88161487c565b9050919050565b60006020820190508181036000830152614e188161489f565b9050919050565b60006020820190508181036000830152614e38816148c2565b9050919050565b60006020820190508181036000830152614e58816148e5565b9050919050565b60006020820190508181036000830152614e7881614908565b9050919050565b60006020820190508181036000830152614e988161492b565b9050919050565b60006020820190508181036000830152614eb88161494e565b9050919050565b6000602082019050614ed46000830184614980565b92915050565b6000604082019050614eef6000830185614980565b614efc6020830184614980565b9392505050565b60008083356001602003843603038112614f1c57600080fd5b80840192508235915067ffffffffffffffff821115614f3a57600080fd5b602083019250600182023603831315614f5257600080fd5b509250929050565b6000614f64614f75565b9050614f708282615251565b919050565b6000604051905090565b600067ffffffffffffffff821115614f9a57614f99615353565b5b602082029050602081019050919050565b600067ffffffffffffffff821115614fc657614fc5615353565b5b602082029050602081019050919050565b600067ffffffffffffffff821115614ff257614ff1615353565b5b614ffb826153a4565b9050602081019050919050565b6000819050602082019050919050565b6000819050602082019050919050565b60008190508160005260206000209050919050565b600081519050919050565b600081519050919050565b600081519050919050565b600081519050919050565b6000602082019050919050565b6000602082019050919050565b600082825260208201905092915050565b600082825260208201905092915050565b600082825260208201905092915050565b600082825260208201905092915050565b600081905092915050565b60006150dd826151c6565b91506150e8836151c6565b9250827fffffffffffffffffffffffffffffffffffffffffffffffffffffffffffffffff0382111561511d5761511c6152f5565b5b828201905092915050565b6000615133826151d0565b915061513e836151d0565b925082821015615151576151506152f5565b5b828203905092915050565b6000615167826151a6565b9050919050565b60008115159050919050565b60007fffffffff0000000000000000000000000000000000000000000000000000000082169050919050565b600073ffffffffffffffffffffffffffffffffffffffff82169050919050565b6000819050919050565b600060ff82169050919050565b82818337600083830152505050565b60005b8381101561520a5780820151818401526020810190506151ef565b83811115615219576000848401525b50505050565b6000600282049050600182168061523757607f821691505b6020821081141561524b5761524a615324565b5b50919050565b61525a826153a4565b810181811067ffffffffffffffff8211171561527957615278615353565b5b80604052505050565b600061528d826151c6565b91507fffffffffffffffffffffffffffffffffffffffffffffffffffffffffffffffff8214156152c0576152bf6152f5565b5b600182019050919050565b60006152d6826151d0565b915060ff8214156152ea576152e96152f5565b5b600182019050919050565b7f4e487b7100000000000000000000000000000000000000000000000000000000600052601160045260246000fd5b7f4e487b7100000000000000000000000000000000000000000000000000000000600052602260045260246000fd5b7f4e487b7100000000000000000000000000000000000000000000000000000000600052604160045260246000fd5b600060033d11156153a15760046000803e61539e6000516153b5565b90505b90565b6000601f19601f8301169050919050565b60008160e01c9050919050565b7f455243313135353a207472616e7366657220746f206e6f6e204552433131353560008201527f526563656976657220696d706c656d656e746572000000000000000000000000602082015250565b7f455243313135353a204552433131353552656365697665722072656a6563746560008201527f6420746f6b656e73000000000000000000000000000000000000000000000000602082015250565b7f556e617574686f72697a65640000000000000000000000000000000000000000600082015250565b7f455243313135353a2062616c616e636520717565727920666f7220746865207a60008201527f65726f2061646472657373000000000000000000000000000000000000000000602082015250565b7f4f776e61626c653a206e6577206f776e657220697320746865207a65726f206160008201527f6464726573730000000000000000000000000000000000000000000000000000602082015250565b7f455243313135353a206275726e20616d6f756e7420657863656564732062616c60008201527f616e636500000000000000000000000000000000000000000000000000000000602082015250565b7f496e707574206172726179206d69736d61746368000000000000000000000000600082015250565b7f5469657220646f6573206e6f7420657869737400000000000000000000000000600082015250565b7f455243313135353a207472616e7366657220746f20746865207a65726f20616460008201527f6472657373000000000000000000000000000000000000000000000000000000602082015250565b7f455243313135353a207472616e736665722063616c6c6572206973206e6f742060008201527f6f776e6572206e6f7220617070726f7665640000000000000000000000000000602082015250565b7f4455504c49434154455f544f4b454e0000000000000000000000000000000000600082015250565b7f455243313135353a206275726e2066726f6d20746865207a65726f206164647260008201527f6573730000000000000000000000000000000000000000000000000000000000602082015250565b7f455243313135353a20696e73756666696369656e742062616c616e636520666f60008201527f72207472616e7366657200000000000000000000000000000000000000000000602082015250565b7f4f776e61626c653a2063616c6c6572206973206e6f7420746865206f776e6572600082015250565b7f455243313135353a2073657474696e6720617070726f76616c2073746174757360008201527f20666f722073656c660000000000000000000000000000000000000000000000602082015250565b7f455243313135353a206163636f756e747320616e6420696473206c656e67746860008201527f206d69736d617463680000000000000000000000000000000000000000000000602082015250565b7f455243313135353a2069647320616e6420616d6f756e7473206c656e6774682060008201527f6d69736d61746368000000000000000000000000000000000000000000000000602082015250565b7f5472616e736665722064697361626c656420666f722074686973207469657200600082015250565b7f455243313135353a206d696e7420746f20746865207a65726f2061646472657360008201527f7300000000000000000000000000000000000000000000000000000000000000602082015250565b7f5469657220616c72656164792065786973747320666f7220746f6b656e496400600082015250565b7f537472696e672063616e6e6f7420626520656d70747900000000000000000000600082015250565b600060443d101561591d576159a0565b615925614f75565b60043d036004823e80513d602482011167ffffffffffffffff8211171561594d5750506159a0565b808201805167ffffffffffffffff81111561596b57505050506159a0565b80602083010160043d0385018111156159885750505050506159a0565b61599782602001850186615251565b82955050505050505b90565b6159ac8161515c565b81146159b757600080fd5b50565b6159c38161516e565b81146159ce57600080fd5b50565b6159da8161517a565b81146159e557600080fd5b50565b6159f1816151c6565b81146159fc57600080fd5b5056fea26469706673582212202e250a5a77acd8a2a6ea76e5ce2f20c15071652b715cf74c7574bf63f131a54b64736f6c63430008040033",
  "devdoc": {
    "kind": "dev",
    "methods": {
      "balanceOf(address,uint256)": {
        "details": "See {IERC1155-balanceOf}. Requirements: - `account` cannot be the zero address."
      },
      "balanceOfBatch(address[],uint256[])": {
        "details": "See {IERC1155-balanceOfBatch}. Requirements: - `accounts` and `ids` must have the same length."
      },
      "burn(address,uint256,uint256)": {
        "details": "burns specified amount token(s) of specific id from specified account",
        "params": {
          "account": "address of token holder",
          "amount": "units of token to be burnt from beneficiary",
          "id": "id of token, aka. tier"
        }
      },
      "burnFromMultiple(address[],uint256[],uint256[])": {
        "details": "burns from multiple addresses arbitrary units of tokens of ONE token id per address                      example: burn 3 units of tokenId 1 from alice and 4 units of tokenId 2 froms bob",
        "params": {
          "accounts": "list of token holder addresses",
          "amounts": "list of burn amounts",
          "tokenIds": "list of token ids (aka tiers)"
        }
      },
      "changeBaseUri(string)": {
        "details": "sets a base uri, that is the first part of the url where the metadata for a tokenId is stored",
        "params": {
          "_newBaseUri": "baseUrl (e.g. www.filestoring.com/)"
        }
      },
      "createTokenTier(uint256,string,bool,address)": {
        "details": "creates a new token tier",
        "params": {
          "tokenId": "identifier for the new token tier",
          "transferable": "determines if tokens from specific tier should be transferable or not",
          "uriId": "identifier that is appended to the baseUri together forming the uri where the metadata lives"
        }
      },
      "isApprovedForAll(address,address)": {
        "details": "See {IERC1155-isApprovedForAll}."
      },
      "mint(address,uint256,uint256)": {
        "details": "mints specified amount token(s) of specific id to specified account",
        "params": {
          "account": "beneficiary address",
          "amount": "units of token to be minted to beneficiary",
          "id": "id of token, aka. tier"
        }
      },
      "mintToMultiple(address[],uint256[],uint256[])": {
        "details": "mints to multiple addresses arbitrary units of tokens of ONE token id per address",
        "params": {
          "accounts": "list of beneficiary addresses",
          "amounts": "list of mint amounts",
          "tokenIds": "list of token ids (aka tiers)"
        }
      },
      "owner()": {
        "details": "Returns the address of the current owner."
      },
      "renounceOwnership()": {
        "details": "Leaves the contract without owner. It will not be possible to call `onlyOwner` functions anymore. Can only be called by the current owner. NOTE: Renouncing ownership will leave the contract without an owner, thereby removing any functionality that is only available to the owner."
      },
      "safeBatchTransferFrom(address,address,uint256[],uint256[],bytes)": {
        "details": "See {IERC1155-safeBatchTransferFrom}."
      },
      "safeTransferFrom(address,address,uint256,uint256,bytes)": {
        "details": "transfers tokens from one address to another allowing custom data parameter",
        "params": {
          "amount": "amount of token to be transferred",
          "from": "address from which token will be transferred",
          "id": "id of token to be transferred",
          "to": "recipient of address"
        }
      },
      "setApprovalForAll(address,bool)": {
        "details": "See {IERC1155-setApprovalForAll}."
      },
      "supportsInterface(bytes4)": {
        "details": "See {IERC165-supportsInterface}."
      },
      "transferFromWithoutData(address,address,uint256,uint256)": {
        "details": "transfers tokens from one address to another and uses 0x0 as default data parameter",
        "params": {
          "amount": "amount of token to be transferred",
          "from": "address from which token will be transferred",
          "id": "id of token to be transferred",
          "to": "recipient of address"
        }
      },
      "transferOwnership(address)": {
        "details": "Transfers ownership of the contract to a new account (`newOwner`). Can only be called by the current owner."
      },
      "updateMultipleUriIdentifiers(uint256[],string[])": {
        "details": "update uri identifiers for multiple token ids (tiers)",
        "params": {
          "tokenIds": "tokenIds for which the uri should be updated (must be in same order as uriIds)",
          "uriIds": "identifiers that are appended to the baseUri together forming the uri where the metadata lives (must be in same order ass tokenIds)"
        }
      },
      "updateTransferableStatus(uint256,bool)": {
        "details": "updates transferability for a given token id (tier)",
        "params": {
          "tokenId": "tokenId for which transferability should be updated",
          "transferable": "determines whether tokens from tier should be transferable or not"
        }
      },
      "updateUriIdentifier(uint256,string)": {
        "details": "updates the identifier that is appended to the baseUri for a specific tokenId (tier)",
        "params": {
          "tokenId": "tokenId for which the uri should be updated",
          "uriId": "identifier that is appended to the baseUri together forming the uri where the metadata lives"
        }
      },
      "uri(uint256)": {
        "details": "returns the uri for a given token",
        "params": {
          "tokenId": "tokenId for which the uri should be retrieved"
        }
      }
    },
    "version": 1
  },
  "userdoc": {
    "kind": "user",
    "methods": {
      "mintToMultiple(address[],uint256[],uint256[])": {
        "notice": "example: mint 3 units of tokenId 1 to alice and 4 units of tokenId 2 to bob"
      },
      "safeTransferFrom(address,address,uint256,uint256,bytes)": {
        "notice": "this is the standard transfer interface for ERC1155 tokens which contracts expect"
      },
      "transferFromWithoutData(address,address,uint256,uint256)": {
        "notice": "this is mainly used for manual contract interactions via etherscan"
      },
      "uri(uint256)": {
        "notice": "consists of a concatenation of baseUri and uriId"
      }
    },
    "version": 1
  },
  "storageLayout": {
    "storage": [
      {
        "astId": 7,
        "contract": "contracts/Karmic.sol:Karmic",
        "label": "_owner",
        "offset": 0,
        "slot": "0",
        "type": "t_address"
      },
      {
        "astId": 130,
        "contract": "contracts/Karmic.sol:Karmic",
        "label": "_balances",
        "offset": 0,
        "slot": "1",
        "type": "t_mapping(t_uint256,t_mapping(t_address,t_uint256))"
      },
      {
        "astId": 136,
        "contract": "contracts/Karmic.sol:Karmic",
        "label": "_operatorApprovals",
        "offset": 0,
        "slot": "2",
        "type": "t_mapping(t_address,t_mapping(t_address,t_bool))"
      },
      {
        "astId": 138,
        "contract": "contracts/Karmic.sol:Karmic",
        "label": "_uri",
        "offset": 0,
        "slot": "3",
        "type": "t_string_storage"
      },
      {
        "astId": 2399,
        "contract": "contracts/Karmic.sol:Karmic",
        "label": "tokenTiers",
        "offset": 0,
        "slot": "4",
        "type": "t_mapping(t_uint256,t_struct(TokenTier)2406_storage)"
      },
      {
        "astId": 2992,
        "contract": "contracts/Karmic.sol:Karmic",
        "label": "boxTokenTiers",
        "offset": 0,
        "slot": "5",
        "type": "t_mapping(t_address,t_uint256)"
      },
      {
        "astId": 2994,
        "contract": "contracts/Karmic.sol:Karmic",
        "label": "boxTokenCounter",
        "offset": 0,
        "slot": "6",
        "type": "t_uint256"
      }
    ],
    "types": {
      "t_address": {
        "encoding": "inplace",
        "label": "address",
        "numberOfBytes": "20"
      },
      "t_bool": {
        "encoding": "inplace",
        "label": "bool",
        "numberOfBytes": "1"
      },
      "t_mapping(t_address,t_bool)": {
        "encoding": "mapping",
        "key": "t_address",
        "label": "mapping(address => bool)",
        "numberOfBytes": "32",
        "value": "t_bool"
      },
      "t_mapping(t_address,t_mapping(t_address,t_bool))": {
        "encoding": "mapping",
        "key": "t_address",
        "label": "mapping(address => mapping(address => bool))",
        "numberOfBytes": "32",
        "value": "t_mapping(t_address,t_bool)"
      },
      "t_mapping(t_address,t_uint256)": {
        "encoding": "mapping",
        "key": "t_address",
        "label": "mapping(address => uint256)",
        "numberOfBytes": "32",
        "value": "t_uint256"
      },
      "t_mapping(t_uint256,t_mapping(t_address,t_uint256))": {
        "encoding": "mapping",
        "key": "t_uint256",
        "label": "mapping(uint256 => mapping(address => uint256))",
        "numberOfBytes": "32",
        "value": "t_mapping(t_address,t_uint256)"
      },
      "t_mapping(t_uint256,t_struct(TokenTier)2406_storage)": {
        "encoding": "mapping",
        "key": "t_uint256",
        "label": "mapping(uint256 => struct Badger.TokenTier)",
        "numberOfBytes": "32",
        "value": "t_struct(TokenTier)2406_storage"
      },
      "t_string_storage": {
        "encoding": "bytes",
        "label": "string",
        "numberOfBytes": "32"
      },
      "t_struct(TokenTier)2406_storage": {
        "encoding": "inplace",
        "label": "struct Badger.TokenTier",
        "members": [
          {
            "astId": 2401,
            "contract": "contracts/Karmic.sol:Karmic",
            "label": "uriId",
            "offset": 0,
            "slot": "0",
            "type": "t_string_storage"
          },
          {
            "astId": 2403,
            "contract": "contracts/Karmic.sol:Karmic",
            "label": "transferable",
            "offset": 0,
            "slot": "1",
            "type": "t_bool"
          },
          {
            "astId": 2405,
            "contract": "contracts/Karmic.sol:Karmic",
            "label": "boxToken",
            "offset": 1,
            "slot": "1",
            "type": "t_address"
          }
        ],
        "numberOfBytes": "64"
      },
      "t_uint256": {
        "encoding": "inplace",
        "label": "uint256",
        "numberOfBytes": "32"
      }
    }
  }
}