{
  "address": "0xe323C27212F34fCEABBBd98A5f43505dDeC266Dc",
  "abi": [
    {
      "inputs": [
        {
          "internalType": "string",
          "name": "_newBaseUri",
          "type": "string"
        },
        {
          "internalType": "string",
          "name": "_metadata",
          "type": "string"
        },
        {
          "internalType": "uint256",
          "name": "_fee",
          "type": "uint256"
        }
      ],
      "stateMutability": "nonpayable",
      "type": "constructor"
    },
    {
      "anonymous": false,
      "inputs": [
        {
          "indexed": true,
          "internalType": "address",
          "name": "account",
          "type": "address"
        },
        {
          "indexed": true,
          "internalType": "address",
          "name": "operator",
          "type": "address"
        },
        {
          "indexed": false,
          "internalType": "bool",
          "name": "approved",
          "type": "bool"
        }
      ],
      "name": "ApprovalForAll",
      "type": "event"
    },
    {
      "anonymous": false,
      "inputs": [
        {
          "indexed": true,
          "internalType": "address",
          "name": "receiver",
          "type": "address"
        },
        {
          "indexed": true,
          "internalType": "uint256",
          "name": "tokenTier",
          "type": "uint256"
        },
        {
          "indexed": false,
          "internalType": "uint256",
          "name": "amount",
          "type": "uint256"
        }
      ],
      "name": "FundsDistributed",
      "type": "event"
    },
    {
      "anonymous": false,
      "inputs": [
        {
          "indexed": true,
          "internalType": "address",
          "name": "previousOwner",
          "type": "address"
        },
        {
          "indexed": true,
          "internalType": "address",
          "name": "newOwner",
          "type": "address"
        }
      ],
      "name": "OwnershipTransferred",
      "type": "event"
    },
    {
      "anonymous": false,
      "inputs": [
        {
          "indexed": false,
          "internalType": "address",
          "name": "account",
          "type": "address"
        }
      ],
      "name": "Paused",
      "type": "event"
    },
    {
      "anonymous": false,
      "inputs": [
        {
          "indexed": true,
          "internalType": "uint256",
          "name": "tokenId",
          "type": "uint256"
        },
        {
          "indexed": false,
          "internalType": "string",
          "name": "uriId",
          "type": "string"
        },
        {
          "indexed": false,
          "internalType": "bool",
          "name": "transferables",
          "type": "bool"
        }
      ],
      "name": "TierChange",
      "type": "event"
    },
    {
      "anonymous": false,
      "inputs": [
        {
          "indexed": true,
          "internalType": "address",
          "name": "operator",
          "type": "address"
        },
        {
          "indexed": true,
          "internalType": "address",
          "name": "from",
          "type": "address"
        },
        {
          "indexed": true,
          "internalType": "address",
          "name": "to",
          "type": "address"
        },
        {
          "indexed": false,
          "internalType": "uint256[]",
          "name": "ids",
          "type": "uint256[]"
        },
        {
          "indexed": false,
          "internalType": "uint256[]",
          "name": "values",
          "type": "uint256[]"
        }
      ],
      "name": "TransferBatch",
      "type": "event"
    },
    {
      "anonymous": false,
      "inputs": [
        {
          "indexed": true,
          "internalType": "address",
          "name": "operator",
          "type": "address"
        },
        {
          "indexed": true,
          "internalType": "address",
          "name": "from",
          "type": "address"
        },
        {
          "indexed": true,
          "internalType": "address",
          "name": "to",
          "type": "address"
        },
        {
          "indexed": false,
          "internalType": "uint256",
          "name": "id",
          "type": "uint256"
        },
        {
          "indexed": false,
          "internalType": "uint256",
          "name": "value",
          "type": "uint256"
        }
      ],
      "name": "TransferSingle",
      "type": "event"
    },
    {
      "anonymous": false,
      "inputs": [
        {
          "indexed": false,
          "internalType": "string",
          "name": "value",
          "type": "string"
        },
        {
          "indexed": true,
          "internalType": "uint256",
          "name": "id",
          "type": "uint256"
        }
      ],
      "name": "URI",
      "type": "event"
    },
    {
      "anonymous": false,
      "inputs": [
        {
          "indexed": false,
          "internalType": "address",
          "name": "account",
          "type": "address"
        }
      ],
      "name": "Unpaused",
      "type": "event"
    },
    {
      "inputs": [],
      "name": "FEE_PRECISION",
      "outputs": [
        {
          "internalType": "uint256",
          "name": "",
          "type": "uint256"
        }
      ],
      "stateMutability": "view",
      "type": "function"
    },
    {
      "inputs": [],
      "name": "TOKENS_PER_ETH",
      "outputs": [
        {
          "internalType": "uint256",
          "name": "",
          "type": "uint256"
        }
      ],
      "stateMutability": "view",
      "type": "function"
    },
    {
      "inputs": [
        {
          "internalType": "address[]",
          "name": "tokens",
          "type": "address[]"
        },
        {
          "internalType": "string[]",
          "name": "tierUris",
          "type": "string[]"
        },
        {
          "internalType": "uint256[]",
          "name": "threshold",
          "type": "uint256[]"
        }
      ],
      "name": "addBoxTokens",
      "outputs": [],
      "stateMutability": "nonpayable",
      "type": "function"
    },
    {
      "inputs": [
        {
          "internalType": "address",
          "name": "holder",
          "type": "address"
        }
      ],
      "name": "allBalancesOf",
      "outputs": [
        {
          "internalType": "uint256[]",
          "name": "balances",
          "type": "uint256[]"
        }
      ],
      "stateMutability": "view",
      "type": "function"
    },
    {
      "inputs": [
        {
          "internalType": "address",
          "name": "account",
          "type": "address"
        },
        {
          "internalType": "uint256",
          "name": "id",
          "type": "uint256"
        }
      ],
      "name": "balanceOf",
      "outputs": [
        {
          "internalType": "uint256",
          "name": "",
          "type": "uint256"
        }
      ],
      "stateMutability": "view",
      "type": "function"
    },
    {
      "inputs": [
        {
          "internalType": "address[]",
          "name": "accounts",
          "type": "address[]"
        },
        {
          "internalType": "uint256[]",
          "name": "ids",
          "type": "uint256[]"
        }
      ],
      "name": "balanceOfBatch",
      "outputs": [
        {
          "internalType": "uint256[]",
          "name": "",
          "type": "uint256[]"
        }
      ],
      "stateMutability": "view",
      "type": "function"
    },
    {
      "inputs": [
        {
          "internalType": "address",
          "name": "token",
          "type": "address"
        },
        {
          "internalType": "uint256",
          "name": "amount",
          "type": "uint256"
        }
      ],
      "name": "bondToMint",
      "outputs": [],
      "stateMutability": "nonpayable",
      "type": "function"
    },
    {
      "inputs": [],
      "name": "boxTokenCounter",
      "outputs": [
        {
          "internalType": "uint256",
          "name": "",
          "type": "uint256"
        }
      ],
      "stateMutability": "view",
      "type": "function"
    },
    {
      "inputs": [
        {
          "internalType": "address",
          "name": "",
          "type": "address"
        }
      ],
      "name": "boxTokenTiers",
      "outputs": [
        {
          "internalType": "uint256",
          "name": "id",
          "type": "uint256"
        },
        {
          "internalType": "uint256",
          "name": "amount",
          "type": "uint256"
        },
        {
          "internalType": "uint256",
          "name": "funds",
          "type": "uint256"
        },
        {
          "internalType": "uint256",
          "name": "distributed",
          "type": "uint256"
        },
        {
          "internalType": "bool",
          "name": "passedThreshold",
          "type": "bool"
        },
        {
          "internalType": "uint256",
          "name": "threshold",
          "type": "uint256"
        }
      ],
      "stateMutability": "view",
      "type": "function"
    },
    {
      "inputs": [
        {
          "internalType": "address",
          "name": "account",
          "type": "address"
        },
        {
          "internalType": "uint256",
          "name": "id",
          "type": "uint256"
        },
        {
          "internalType": "uint256",
          "name": "amount",
          "type": "uint256"
        }
      ],
      "name": "burn",
      "outputs": [],
      "stateMutability": "nonpayable",
      "type": "function"
    },
    {
      "inputs": [
        {
          "internalType": "address[]",
          "name": "accounts",
          "type": "address[]"
        },
        {
          "internalType": "uint256[]",
          "name": "tokenIds",
          "type": "uint256[]"
        },
        {
          "internalType": "uint256[]",
          "name": "amounts",
          "type": "uint256[]"
        }
      ],
      "name": "burnFromMultiple",
      "outputs": [],
      "stateMutability": "nonpayable",
      "type": "function"
    },
    {
      "inputs": [
        {
          "internalType": "string",
          "name": "_newBaseUri",
          "type": "string"
        }
      ],
      "name": "changeBaseUri",
      "outputs": [],
      "stateMutability": "nonpayable",
      "type": "function"
    },
    {
      "inputs": [
        {
          "internalType": "address[]",
          "name": "boxTokens",
          "type": "address[]"
        }
      ],
      "name": "claimGovernanceTokens",
      "outputs": [],
      "stateMutability": "nonpayable",
      "type": "function"
    },
    {
      "inputs": [
        {
          "internalType": "uint256",
          "name": "tokenId",
          "type": "uint256"
        },
        {
          "internalType": "string",
          "name": "uriId",
          "type": "string"
        },
        {
          "internalType": "bool",
          "name": "transferable",
          "type": "bool"
        },
        {
          "internalType": "address",
          "name": "boxToken",
          "type": "address"
        }
      ],
      "name": "createTokenTier",
      "outputs": [],
      "stateMutability": "nonpayable",
      "type": "function"
    },
    {
      "inputs": [
        {
          "internalType": "address payable",
          "name": "_receiver",
          "type": "address"
        },
        {
          "internalType": "uint256",
          "name": "_tier",
          "type": "uint256"
        },
        {
          "internalType": "uint256",
          "name": "_amount",
          "type": "uint256"
        }
      ],
      "name": "distribute",
      "outputs": [],
      "stateMutability": "nonpayable",
      "type": "function"
    },
    {
      "inputs": [],
      "name": "fee",
      "outputs": [
        {
          "internalType": "uint256",
          "name": "",
          "type": "uint256"
        }
      ],
      "stateMutability": "view",
      "type": "function"
    },
    {
      "inputs": [],
      "name": "getBoxTokens",
      "outputs": [
        {
          "internalType": "address[]",
          "name": "boxTokens",
          "type": "address[]"
        }
      ],
      "stateMutability": "view",
      "type": "function"
    },
    {
      "inputs": [
        {
          "internalType": "address",
          "name": "account",
          "type": "address"
        },
        {
          "internalType": "address",
          "name": "operator",
          "type": "address"
        }
      ],
      "name": "isApprovedForAll",
      "outputs": [
        {
          "internalType": "bool",
          "name": "",
          "type": "bool"
        }
      ],
      "stateMutability": "view",
      "type": "function"
    },
    {
      "inputs": [
        {
          "internalType": "address",
          "name": "account",
          "type": "address"
        },
        {
          "internalType": "uint256",
          "name": "id",
          "type": "uint256"
        },
        {
          "internalType": "uint256",
          "name": "amount",
          "type": "uint256"
        }
      ],
      "name": "mint",
      "outputs": [],
      "stateMutability": "nonpayable",
      "type": "function"
    },
    {
      "inputs": [
        {
          "internalType": "address[]",
          "name": "accounts",
          "type": "address[]"
        },
        {
          "internalType": "uint256[]",
          "name": "tokenIds",
          "type": "uint256[]"
        },
        {
          "internalType": "uint256[]",
          "name": "amounts",
          "type": "uint256[]"
        }
      ],
      "name": "mintToMultiple",
      "outputs": [],
      "stateMutability": "nonpayable",
      "type": "function"
    },
    {
      "inputs": [],
      "name": "owner",
      "outputs": [
        {
          "internalType": "address",
          "name": "",
          "type": "address"
        }
      ],
      "stateMutability": "view",
      "type": "function"
    },
    {
      "inputs": [],
      "name": "pause",
      "outputs": [],
      "stateMutability": "nonpayable",
      "type": "function"
    },
    {
      "inputs": [],
      "name": "paused",
      "outputs": [
        {
          "internalType": "bool",
          "name": "",
          "type": "bool"
        }
      ],
      "stateMutability": "view",
      "type": "function"
    },
    {
      "inputs": [],
      "name": "renounceOwnership",
      "outputs": [],
      "stateMutability": "nonpayable",
      "type": "function"
    },
    {
      "inputs": [
        {
          "internalType": "address",
          "name": "from",
          "type": "address"
        },
        {
          "internalType": "address",
          "name": "to",
          "type": "address"
        },
        {
          "internalType": "uint256[]",
          "name": "ids",
          "type": "uint256[]"
        },
        {
          "internalType": "uint256[]",
          "name": "amounts",
          "type": "uint256[]"
        },
        {
          "internalType": "bytes",
          "name": "data",
          "type": "bytes"
        }
      ],
      "name": "safeBatchTransferFrom",
      "outputs": [],
      "stateMutability": "nonpayable",
      "type": "function"
    },
    {
      "inputs": [
        {
          "internalType": "address",
          "name": "from",
          "type": "address"
        },
        {
          "internalType": "address",
          "name": "to",
          "type": "address"
        },
        {
          "internalType": "uint256",
          "name": "id",
          "type": "uint256"
        },
        {
          "internalType": "uint256",
          "name": "amount",
          "type": "uint256"
        },
        {
          "internalType": "bytes",
          "name": "data",
          "type": "bytes"
        }
      ],
      "name": "safeTransferFrom",
      "outputs": [],
      "stateMutability": "nonpayable",
      "type": "function"
    },
    {
      "inputs": [
        {
          "internalType": "address",
          "name": "operator",
          "type": "address"
        },
        {
          "internalType": "bool",
          "name": "approved",
          "type": "bool"
        }
      ],
      "name": "setApprovalForAll",
      "outputs": [],
      "stateMutability": "nonpayable",
      "type": "function"
    },
    {
      "inputs": [
        {
          "internalType": "uint256",
          "name": "_fee",
          "type": "uint256"
        }
      ],
      "name": "setFee",
      "outputs": [],
      "stateMutability": "nonpayable",
      "type": "function"
    },
    {
      "inputs": [
        {
          "internalType": "bytes4",
          "name": "interfaceId",
          "type": "bytes4"
        }
      ],
      "name": "supportsInterface",
      "outputs": [
        {
          "internalType": "bool",
          "name": "",
          "type": "bool"
        }
      ],
      "stateMutability": "view",
      "type": "function"
    },
    {
      "inputs": [
        {
          "internalType": "uint256",
          "name": "",
          "type": "uint256"
        }
      ],
      "name": "tokenTiers",
      "outputs": [
        {
          "internalType": "string",
          "name": "uriId",
          "type": "string"
        },
        {
          "internalType": "bool",
          "name": "transferable",
          "type": "bool"
        },
        {
          "internalType": "address",
          "name": "boxToken",
          "type": "address"
        }
      ],
      "stateMutability": "view",
      "type": "function"
    },
    {
      "inputs": [
        {
          "internalType": "address",
          "name": "from",
          "type": "address"
        },
        {
          "internalType": "address",
          "name": "to",
          "type": "address"
        },
        {
          "internalType": "uint256",
          "name": "id",
          "type": "uint256"
        },
        {
          "internalType": "uint256",
          "name": "amount",
          "type": "uint256"
        }
      ],
      "name": "transferFromWithoutData",
      "outputs": [],
      "stateMutability": "nonpayable",
      "type": "function"
    },
    {
      "inputs": [
        {
          "internalType": "address",
          "name": "newOwner",
          "type": "address"
        }
      ],
      "name": "transferOwnership",
      "outputs": [],
      "stateMutability": "nonpayable",
      "type": "function"
    },
    {
      "inputs": [],
      "name": "unpause",
      "outputs": [],
      "stateMutability": "nonpayable",
      "type": "function"
    },
    {
      "inputs": [
        {
          "internalType": "uint256[]",
          "name": "tokenIds",
          "type": "uint256[]"
        },
        {
          "internalType": "string[]",
          "name": "uriIds",
          "type": "string[]"
        }
      ],
      "name": "updateMultipleUriIdentifiers",
      "outputs": [],
      "stateMutability": "nonpayable",
      "type": "function"
    },
    {
      "inputs": [
        {
          "internalType": "uint256",
          "name": "tokenId",
          "type": "uint256"
        },
        {
          "internalType": "bool",
          "name": "transferable",
          "type": "bool"
        }
      ],
      "name": "updateTransferableStatus",
      "outputs": [],
      "stateMutability": "nonpayable",
      "type": "function"
    },
    {
      "inputs": [
        {
          "internalType": "uint256",
          "name": "tokenId",
          "type": "uint256"
        },
        {
          "internalType": "string",
          "name": "uriId",
          "type": "string"
        }
      ],
      "name": "updateUriIdentifier",
      "outputs": [],
      "stateMutability": "nonpayable",
      "type": "function"
    },
    {
      "inputs": [
        {
          "internalType": "uint256",
          "name": "tokenId",
          "type": "uint256"
        }
      ],
      "name": "uri",
      "outputs": [
        {
          "internalType": "string",
          "name": "",
          "type": "string"
        }
      ],
      "stateMutability": "view",
      "type": "function"
    },
    {
      "inputs": [
        {
          "internalType": "address",
          "name": "token",
          "type": "address"
        },
        {
          "internalType": "uint256",
          "name": "amount",
          "type": "uint256"
        }
      ],
      "name": "withdraw",
      "outputs": [],
      "stateMutability": "nonpayable",
      "type": "function"
    },
    {
      "stateMutability": "payable",
      "type": "receive"
    }
  ],
  "transactionHash": "0xbe7db8d153070a3f1a4e7a929778e76efabe53a4dd620575a47c365f4780635e",
  "args": [
    "ipfs://",
    " ",
    "400000000000000000"
  ],
  "numDeployments": 1,
  "solcInputHash": "06e207d067e156ad5ebbeee6014025af",
  "bytecode": "0x60806040523480156200001157600080fd5b5060405162004a8e38038062004a8e8339810160408190526200003491620004a3565b828062000041336200007a565b6200004c81620000ca565b50506005805460ff1916905560016007556008819055620000716000838180620000e3565b505050620005d6565b600080546001600160a01b038381166001600160a01b0319831681178455604051919092169283917f8be0079c531659141344cd1fd0a4f28419497f9722a3daafe3b4186f6b6457e09190a35050565b8051620000df9060039060208401906200036e565b5050565b6000546001600160a01b03163314620001435760405162461bcd60e51b815260206004820181905260248201527f4f776e61626c653a2063616c6c6572206973206e6f7420746865206f776e657260448201526064015b60405180910390fd5b826200014e81511590565b156200019d5760405162461bcd60e51b815260206004820152601660248201527f537472696e672063616e6e6f7420626520656d7074790000000000000000000060448201526064016200013a565b60008581526004602052604090208054620002499190620001be9062000583565b80601f0160208091040260200160405190810160405280929190818152602001828054620001ec9062000583565b80156200023d5780601f1062000211576101008083540402835291602001916200023d565b820191906000526020600020905b8154815290600101906020018083116200021f57829003601f168201915b50506200036992505050565b620002975760405162461bcd60e51b815260206004820152601f60248201527f5469657220616c72656164792065786973747320666f7220746f6b656e49640060448201526064016200013a565b604080516060810182528581528415156020808301919091526001600160a01b03851682840152600088815260048252929092208151805192939192620002e292849201906200036e565b506020820151600190910180546040938401516001600160a01b031661010002610100600160a81b0319931515939093166001600160a81b0319909116179190911790555185907f684099fd398949dc782e92c48c5b6b47f1e1f6cadc408d22d5159752d6c4bced906200035a908790879062000513565b60405180910390a25050505050565b511590565b8280546200037c9062000583565b90600052602060002090601f016020900481019282620003a05760008555620003eb565b82601f10620003bb57805160ff1916838001178555620003eb565b82800160010185558215620003eb579182015b82811115620003eb578251825591602001919060010190620003ce565b50620003f9929150620003fd565b5090565b5b80821115620003f95760008155600101620003fe565b600082601f83011262000425578081fd5b81516001600160401b0380821115620004425762000442620005c0565b604051601f8301601f19908116603f011681019082821181831017156200046d576200046d620005c0565b8160405283815286602085880101111562000486578485fd5b6200049984602083016020890162000550565b9695505050505050565b600080600060608486031215620004b8578283fd5b83516001600160401b0380821115620004cf578485fd5b620004dd8783880162000414565b94506020860151915080821115620004f3578384fd5b50620005028682870162000414565b925050604084015190509250925092565b60408152600083518060408401526200053481606085016020880162000550565b921515602083015250601f91909101601f191601606001919050565b60005b838110156200056d57818101518382015260200162000553565b838111156200057d576000848401525b50505050565b600181811c908216806200059857607f821691505b60208210811415620005ba57634e487b7160e01b600052602260045260246000fd5b50919050565b634e487b7160e01b600052604160045260246000fd5b6144a880620005e66000396000f3fe6080604052600436106102285760003560e01c80638da5cb5b11610123578063dd75d6d6116100ab578063f242432a1161006f578063f242432a146108be578063f2fde38b146108de578063f3fef3a3146108fe578063f5298aca1461091e578063fa6cca101461093e57600080fd5b8063dd75d6d614610803578063ddca3f4314610823578063e2c92a5214610839578063e63a391f14610859578063e985e9c51461087557600080fd5b8063a22cb465116100f2578063a22cb46514610777578063aac01cbd14610797578063bc6e6604146107ad578063c1cef736146107c3578063d2047b54146107e357600080fd5b80638da5cb5b1461068a5780638e7cb179146106b257806397c7cc87146107375780639f6febaa1461075757600080fd5b80634e1273f4116101b1578063732a4d3111610175578063732a4d31146105e4578063818f2e42146106065780638273a4111461063557806384385b6b146106555780638456cb591461067557600080fd5b80634e1273f41461054a5780635969caf1146105775780635c975abb1461059757806369fe0e2d146105af578063715018a6146105cf57600080fd5b8063156e29f6116101f8578063156e29f6146104b55780632eb2c2d6146104d5578063351521cd146104f55780633f4ba83a14610515578063492d306b1461052a57600080fd5b8062fdd58e1461040557806301ffc9a714610438578063036789d1146104685780630e89341c1461048857600080fd5b366104005760055460ff16156102595760405162461bcd60e51b815260040161025090614065565b60405180910390fd5b33600090815260066020526040902054156103ab57336001600160a01b03166318160ddd6040518163ffffffff1660e01b815260040160206040518083038186803b1580156102a757600080fd5b505afa1580156102bb573d6000803e3d6000fd5b505050506040513d601f19601f820116820180604052508101906102df9190613b71565b33600090815260066020526040902060010155600854670de0b6b3a764000090610309903461424b565b610313919061422b565b61031d903461426a565b336000908152600660205260408120600201805490919061033f908490614213565b9091555050600854670de0b6b3a76400009061035b903461424b565b610365919061422b565b600080805260066020527f54cdd369e4e8a8515e52ca72ec816c2101831ad1f18bf44102ed171459c9b4fa80549091906103a0908490614213565b909155506103fe9050565b600080805260066020527f54cdd369e4e8a8515e52ca72ec816c2101831ad1f18bf44102ed171459c9b4fa80546060923492916103e9908490614213565b909155506103fc9050336000348461095e565b505b005b600080fd5b34801561041157600080fd5b50610425610420366004613860565b610a30565b6040519081526020015b60405180910390f35b34801561044457600080fd5b50610458610453366004613ae2565b610ac4565b604051901515815260200161042f565b34801561047457600080fd5b506103fe610483366004613a5e565b610b16565b34801561049457600080fd5b506104a86104a3366004613b59565b610be6565b60405161042f9190613e70565b3480156104c157600080fd5b506103fe6104d036600461388b565b610ca7565b3480156104e157600080fd5b506103fe6104f03660046136df565b610d47565b34801561050157600080fd5b506103fe61051036600461389f565b610dd7565b34801561052157600080fd5b506103fe610fc1565b34801561053657600080fd5b506103fe610545366004613b1a565b610ff5565b34801561055657600080fd5b5061056a6105653660046139fe565b6110c2565b60405161042f9190613df7565b34801561058357600080fd5b506103fe610592366004613b89565b611223565b3480156105a357600080fd5b5060055460ff16610458565b3480156105bb57600080fd5b506103fe6105ca366004613b59565b6112e8565b3480156105db57600080fd5b506103fe611317565b3480156105f057600080fd5b506105f961134b565b60405161042f9190613daa565b34801561061257600080fd5b50610626610621366004613b59565b611432565b60405161042f93929190613ea7565b34801561064157600080fd5b5061056a610650366004613657565b6114ea565b34801561066157600080fd5b506103fe610670366004613788565b6115a3565b34801561068157600080fd5b506103fe6115b2565b34801561069657600080fd5b506000546040516001600160a01b03909116815260200161042f565b3480156106be57600080fd5b506107086106cd366004613657565b600660205260009081526040902080546001820154600283015460038401546004850154600590950154939492939192909160ff9091169086565b6040805196875260208701959095529385019290925260608401521515608083015260a082015260c00161042f565b34801561074357600080fd5b506103fe610752366004613bad565b6115e4565b34801561076357600080fd5b506103fe610772366004613860565b611619565b34801561078357600080fd5b506103fe610792366004613833565b61174f565b3480156107a357600080fd5b5061042560075481565b3480156107b957600080fd5b506104256103e881565b3480156107cf57600080fd5b506103fe6107de366004613bf6565b61175e565b3480156107ef57600080fd5b506103fe6107fe36600461389f565b6118e7565b34801561080f57600080fd5b506103fe61081e36600461396e565b611ad5565b34801561082f57600080fd5b5061042560085481565b34801561084557600080fd5b506103fe610854366004613673565b611cbc565b34801561086557600080fd5b50610425670de0b6b3a764000081565b34801561088157600080fd5b506104586108903660046136a7565b6001600160a01b03918216600090815260026020908152604080832093909416825291909152205460ff1690565b3480156108ca57600080fd5b506103fe6108d93660046137cd565b611e1a565b3480156108ea57600080fd5b506103fe6108f9366004613657565b611e93565b34801561090a57600080fd5b506103fe610919366004613860565b611f2e565b34801561092a57600080fd5b506103fe61093936600461388b565b612206565b34801561094a57600080fd5b506103fe610959366004613934565b6122a3565b600083815260046020526040902080548491610a009161097d906142d0565b80601f01602080910402602001604051908101604052809291908181526020018280546109a9906142d0565b80156109f65780601f106109cb576101008083540402835291602001916109f6565b820191906000526020600020905b8154815290600101906020018083116109d957829003601f168201915b5050505050511590565b15610a1d5760405162461bcd60e51b815260040161025090614009565b610a298585858561248f565b5050505050565b60006001600160a01b038316610a9c5760405162461bcd60e51b815260206004820152602b60248201527f455243313135353a2062616c616e636520717565727920666f7220746865207a60448201526a65726f206164647265737360a81b6064820152608401610250565b5060009081526001602090815260408083206001600160a01b03949094168352929052205490565b60006001600160e01b03198216636cdb3d1360e11b1480610af557506001600160e01b031982166303a24d0760e21b145b80610b1057506301ffc9a760e01b6001600160e01b03198316145b92915050565b6000546001600160a01b03163314610b405760405162461bcd60e51b81526004016102509061411e565b828114610b5f5760405162461bcd60e51b815260040161025090613fdb565b60005b60ff8116841115610a2957610bd485858360ff16818110610b9357634e487b7160e01b600052603260045260246000fd5b9050602002013584848460ff16818110610bbd57634e487b7160e01b600052603260045260246000fd5b9050602002810190610bcf91906141ac565b6125a1565b80610bde8161434c565b915050610b62565b60606000610bf3836126a1565b60008481526004602052604090208054919250610ca091610c13906142d0565b80601f0160208091040260200160405190810160405280929190818152602001828054610c3f906142d0565b8015610c8c5780601f10610c6157610100808354040283529160200191610c8c565b820191906000526020600020905b815481529060010190602001808311610c6f57829003601f168201915b50505050508261273590919063ffffffff16565b9392505050565b6000546001600160a01b03163314610cd15760405162461bcd60e51b81526004016102509061411e565b600082815260046020526040902060010154829061010090046001600160a01b031615610d395760405162461bcd60e51b81526020600482015260166024820152756f6e6c79206f6e2067656e6572616c20746f6b656e7360501b6044820152606401610250565b6060610a298585858461095e565b6001600160a01b038516331480610d635750610d638533610890565b610dca5760405162461bcd60e51b815260206004820152603260248201527f455243313135353a207472616e736665722063616c6c6572206973206e6f74206044820152711bdddb995c881b9bdc88185c1c1c9bdd995960721b6064820152608401610250565b610a298585858585612761565b6000546001600160a01b03163314610e015760405162461bcd60e51b81526004016102509061411e565b85858585858580806020026020016040519081016040528093929190818152602001838360200280828437600092019190915250505084831490508015610e485750805182145b610e645760405162461bcd60e51b815260040161025090613fdb565b60005b8a811015610fb35760006004818c8c85818110610e9457634e487b7160e01b600052603260045260246000fd5b90506020020135815260200190815260200160002060010160019054906101000a90046001600160a01b03166001600160a01b031614610f165760405162461bcd60e51b815260206004820152601c60248201527f43616e206275726e206f6e6c792067656e6572616c20746f6b656e73000000006044820152606401610250565b610fa18c8c83818110610f3957634e487b7160e01b600052603260045260246000fd5b9050602002016020810190610f4e9190613657565b8b8b84818110610f6e57634e487b7160e01b600052603260045260246000fd5b905060200201358a8a85818110610f9557634e487b7160e01b600052603260045260246000fd5b9050602002013561296b565b80610fab81614331565b915050610e67565b505050505050505050505050565b6000546001600160a01b03163314610feb5760405162461bcd60e51b81526004016102509061411e565b610ff36129b2565b565b6000546001600160a01b0316331461101f5760405162461bcd60e51b81526004016102509061411e565b81818080601f016020809104026020016040519081016040528093929190818152602001838380828437600092019190915250611061925083915061248a9050565b1561107e5760405162461bcd60e51b81526004016102509061417c565b6110bd83838080601f016020809104026020016040519081016040528093929190818152602001838380828437600092019190915250612a4592505050565b505050565b606081518351146111275760405162461bcd60e51b815260206004820152602960248201527f455243313135353a206163636f756e747320616e6420696473206c656e677468604482015268040dad2e6dac2e8c6d60bb1b6064820152608401610250565b600083516001600160401b0381111561115057634e487b7160e01b600052604160045260246000fd5b604051908082528060200260200182016040528015611179578160200160208202803683370190505b50905060005b845181101561121b576111e08582815181106111ab57634e487b7160e01b600052603260045260246000fd5b60200260200101518583815181106111d357634e487b7160e01b600052603260045260246000fd5b6020026020010151610a30565b82828151811061120057634e487b7160e01b600052603260045260246000fd5b602090810291909101015261121481614331565b905061117f565b509392505050565b6000546001600160a01b0316331461124d5760405162461bcd60e51b81526004016102509061411e565b60008281526004602052604090208054839161126c9161097d906142d0565b156112895760405162461bcd60e51b815260040161025090614009565b6000838152600460205260409081902060018101805460ff1916851515179055905184917f684099fd398949dc782e92c48c5b6b47f1e1f6cadc408d22d5159752d6c4bced916112db91908690613eda565b60405180910390a2505050565b6000546001600160a01b031633146113125760405162461bcd60e51b81526004016102509061411e565b600855565b6000546001600160a01b031633146113415760405162461bcd60e51b81526004016102509061411e565b610ff36000612a58565b60606007546001600160401b0381111561137557634e487b7160e01b600052604160045260246000fd5b60405190808252806020026020018201604052801561139e578160200160208202803683370190505b50905060015b6007548160ff161161142e5760ff8116600090815260046020526040902060019081015461010090046001600160a01b03169083906113e39084614281565b60ff168151811061140457634e487b7160e01b600052603260045260246000fd5b6001600160a01b0390921660209283029190910190910152806114268161434c565b9150506113a4565b5090565b60046020526000908152604090208054819061144d906142d0565b80601f0160208091040260200160405190810160405280929190818152602001828054611479906142d0565b80156114c65780601f1061149b576101008083540402835291602001916114c6565b820191906000526020600020905b8154815290600101906020018083116114a957829003601f168201915b5050506001909301549192505060ff8116906001600160a01b036101009091041683565b60606007546001600160401b0381111561151457634e487b7160e01b600052604160045260246000fd5b60405190808252806020026020018201604052801561153d578160200160208202803683370190505b50905060005b6007548160ff16101561159d5761155d838260ff16610a30565b828260ff168151811061158057634e487b7160e01b600052603260045260246000fd5b6020908102919091010152806115958161434c565b915050611543565b50919050565b6060610a298585858585612aa8565b6000546001600160a01b031633146115dc5760405162461bcd60e51b81526004016102509061411e565b610ff3612bc9565b6000546001600160a01b0316331461160e5760405162461bcd60e51b81526004016102509061411e565b6110bd8383836125a1565b60055460ff161561163c5760405162461bcd60e51b815260040161025090614065565b6001600160a01b03821660009081526006602052604090205482906116735760405162461bcd60e51b815260040161025090614036565b6040516323b872dd60e01b8152336004820152306024820152604481018390526001600160a01b038416906323b872dd90606401602060405180830381600087803b1580156116c157600080fd5b505af11580156116d5573d6000803e3d6000fd5b505050506040513d601f19601f820116820180604052508101906116f99190613ac6565b6117155760405162461bcd60e51b815260040161025090614153565b6001600160a01b0383166000908152600660205260409020546060906117499033906117436103e88761422b565b8461095e565b50505050565b61175a338383612c21565b5050565b6000546001600160a01b031633146117885760405162461bcd60e51b81526004016102509061411e565b8261179281511590565b156117af5760405162461bcd60e51b81526004016102509061417c565b600085815260046020526040902080546117cd919061097d906142d0565b6118195760405162461bcd60e51b815260206004820152601f60248201527f5469657220616c72656164792065786973747320666f7220746f6b656e4964006044820152606401610250565b604080516060810182528581528415156020808301919091526001600160a01b038516828401526000888152600482529290922081518051929391926118629284920190613366565b506020820151600190910180546040938401516001600160a01b031661010002610100600160a81b0319931515939093166001600160a81b0319909116179190911790555185907f684099fd398949dc782e92c48c5b6b47f1e1f6cadc408d22d5159752d6c4bced906118d89087908790613e83565b60405180910390a25050505050565b6000546001600160a01b031633146119115760405162461bcd60e51b81526004016102509061411e565b858585858585808060200260200160405190810160405280939291908181526020018383602002808284376000920191909152505050848314905080156119585750805182145b6119745760405162461bcd60e51b815260040161025090613fdb565b606060005b8b811015611ac65760006004818d8d858181106119a657634e487b7160e01b600052603260045260246000fd5b90506020020135815260200190815260200160002060010160019054906101000a90046001600160a01b03166001600160a01b031614611a285760405162461bcd60e51b815260206004820152601c60248201527f43616e206d696e74206f6e6c792067656e6572616c20746f6b656e73000000006044820152606401610250565b611ab48d8d83818110611a4b57634e487b7160e01b600052603260045260246000fd5b9050602002016020810190611a609190613657565b8c8c84818110611a8057634e487b7160e01b600052603260045260246000fd5b905060200201358b8b85818110611aa757634e487b7160e01b600052603260045260246000fd5b905060200201358561095e565b80611abe81614331565b915050611979565b50505050505050505050505050565b6000546001600160a01b03163314611aff5760405162461bcd60e51b81526004016102509061411e565b60075460005b86518160ff161015611cb1576000878260ff1681518110611b3657634e487b7160e01b600052603260045260246000fd5b6020026020010151905060066000826001600160a01b03166001600160a01b0316815260200190815260200160002060000154600014611baa5760405162461bcd60e51b815260206004820152600f60248201526e222aa82624a1a0aa22afaa27a5a2a760891b6044820152606401610250565b6001600160a01b0381166000908152600660205260409020839055848460ff8416818110611be857634e487b7160e01b600052603260045260246000fd5b9050602002013560066000836001600160a01b03166001600160a01b0316815260200190815260200160002060050181905550611c908388888560ff16818110611c4257634e487b7160e01b600052603260045260246000fd5b9050602002810190611c5491906141ac565b8080601f0160208091040260200160405190810160405280939291908181526020018383808284376000920182905250925086915061175e9050565b82611c9a81614331565b935050508080611ca99061434c565b915050611b05565b506007555050505050565b6000546001600160a01b03163314611ce65760405162461bcd60e51b81526004016102509061411e565b60008281526004602090815260408083206001015461010090046001600160a01b031683526006909152902081611d575760405162461bcd60e51b81526020600482015260156024820152746e6f7468696e6720746f206469737472696275746560581b6044820152606401610250565b8181600301548260020154611d6c919061426a565b1015611dac5760405162461bcd60e51b815260206004820152600f60248201526e657863656564732062616c616e636560881b6044820152606401610250565b81816003016000828254611dc09190614213565b90915550611dd090508483612d02565b82846001600160a01b03167f080babe757d4e5c7db3b7bd10606a7bf07a9857f660977ada6ca7a4d329376c884604051611e0c91815260200190565b60405180910390a350505050565b6000546001600160a01b0316331480611e3b57506001600160a01b03851633145b80611e4b5750611e4b8533610890565b611e865760405162461bcd60e51b815260206004820152600c60248201526b155b985d5d1a1bdc9a5e995960a21b6044820152606401610250565b610a298585858585612aa8565b6000546001600160a01b03163314611ebd5760405162461bcd60e51b81526004016102509061411e565b6001600160a01b038116611f225760405162461bcd60e51b815260206004820152602660248201527f4f776e61626c653a206e6577206f776e657220697320746865207a65726f206160448201526564647265737360d01b6064820152608401610250565b611f2b81612a58565b50565b60055460ff1615611f515760405162461bcd60e51b815260040161025090614065565b6001600160a01b0382166000908152600660205260409020548290611f885760405162461bcd60e51b815260040161025090614036565b6000600854670de0b6b3a7640000611fa0919061426a565b6001600160a01b038516600090815260066020526040902060020154611fcf90670de0b6b3a76400009061424b565b611fd9919061422b565b6001600160a01b038516600090815260066020526040902060050154909150811061206c5760405162461bcd60e51b815260206004820152603d60248201527f43616e207769746864726177206f6e6c792066756e647320666f7220746f6b6560448201527f6e732074686174206469646e27742070617373207468726573686f6c640000006064820152608401610250565b6001600160a01b038416600090815260066020526040812060010154612092838661424b565b61209c919061422b565b9050670de0b6b3a7640000600854826120b5919061424b565b6120bf919061422b565b6120c9908261426a565b6001600160a01b038616600090815260066020526040812060020180549091906120f490849061426a565b9091555050600854670de0b6b3a764000090612110908361424b565b61211a919061422b565b600080805260066020527f54cdd369e4e8a8515e52ca72ec816c2101831ad1f18bf44102ed171459c9b4fa805490919061215590849061426a565b90915550506040516323b872dd60e01b8152336004820152306024820152604481018590526001600160a01b038616906323b872dd90606401602060405180830381600087803b1580156121a857600080fd5b505af11580156121bc573d6000803e3d6000fd5b505050506040513d601f19601f820116820180604052508101906121e09190613ac6565b6121fc5760405162461bcd60e51b815260040161025090614153565b610a293382612d02565b6000546001600160a01b031633146122305760405162461bcd60e51b81526004016102509061411e565b600082815260046020526040902060010154829061010090046001600160a01b0316156122985760405162461bcd60e51b81526020600482015260166024820152756f6e6c79206f6e2067656e6572616c20746f6b656e7360501b6044820152606401610250565b61174984848461296b565b60055460ff16156122c65760405162461bcd60e51b815260040161025090614065565b60606000805b83518160ff16101561174957838160ff16815181106122fb57634e487b7160e01b600052603260045260246000fd5b60209081029190910101516040516370a0823160e01b81523360048201529092506000906001600160a01b038416906370a082319060240160206040518083038186803b15801561234b57600080fd5b505afa15801561235f573d6000803e3d6000fd5b505050506040513d601f19601f820116820180604052508101906123839190613b71565b6001600160a01b038416600090815260066020526040902054909150806123bc5760405162461bcd60e51b815260040161025090614036565b6040516323b872dd60e01b8152336004820152306024820152604481018390526001600160a01b038516906323b872dd90606401602060405180830381600087803b15801561240a57600080fd5b505af115801561241e573d6000803e3d6000fd5b505050506040513d601f19601f820116820180604052508101906124429190613ac6565b61245e5760405162461bcd60e51b815260040161025090614153565b612475338261246f6103e88661422b565b8861095e565b505080806124829061434c565b9150506122cc565b511590565b6001600160a01b0384166124ef5760405162461bcd60e51b815260206004820152602160248201527f455243313135353a206d696e7420746f20746865207a65726f206164647265736044820152607360f81b6064820152608401610250565b3361250f8160008761250088612e1b565b61250988612e1b565b87612e74565b60008481526001602090815260408083206001600160a01b038916845290915281208054859290612541908490614213565b909155505060408051858152602081018590526001600160a01b0380881692600092918516917fc3d58168c5ae7397731d063d5bbf3d657854427343f4c083240f7aacaa2d0f62910160405180910390a4610a2981600087878787612fb4565b6000838152600460205260409020805484916125c09161097d906142d0565b156125dd5760405162461bcd60e51b815260040161025090614009565b82828080601f01602080910402602001604051908101604052809392919081815260200183838082843760009201919091525061261f925083915061248a9050565b1561263c5760405162461bcd60e51b81526004016102509061417c565b60008581526004602052604090206126559085856133e6565b506000858152600460205260409081902060010154905186917f684099fd398949dc782e92c48c5b6b47f1e1f6cadc408d22d5159752d6c4bced916118d8918891889160ff1690613e38565b6060600380546126b0906142d0565b80601f01602080910402602001604051908101604052809291908181526020018280546126dc906142d0565b80156127295780601f106126fe57610100808354040283529160200191612729565b820191906000526020600020905b81548152906001019060200180831161270c57829003601f168201915b50505050509050919050565b6060828260405160200161274a929190613cd8565b604051602081830303815290604052905092915050565b81518351146127c35760405162461bcd60e51b815260206004820152602860248201527f455243313135353a2069647320616e6420616d6f756e7473206c656e677468206044820152670dad2e6dac2e8c6d60c31b6064820152608401610250565b6001600160a01b0384166127e95760405162461bcd60e51b81526004016102509061408f565b336127f8818787878787612e74565b60005b84518110156128fd57600085828151811061282657634e487b7160e01b600052603260045260246000fd5b60200260200101519050600085838151811061285257634e487b7160e01b600052603260045260246000fd5b60209081029190910181015160008481526001835260408082206001600160a01b038e1683529093529190912054909150818110156128a35760405162461bcd60e51b8152600401610250906140d4565b60008381526001602090815260408083206001600160a01b038e8116855292528083208585039055908b168252812080548492906128e2908490614213565b92505081905550505050806128f690614331565b90506127fb565b50846001600160a01b0316866001600160a01b0316826001600160a01b03167f4a39dc06d4c0dbc64b70af90fd698a233a518aa5d07e595d983b8c0526c8f7fb878760405161294d929190613e0a565b60405180910390a461296381878787878761311f565b505050505050565b60008281526004602052604090208054839161298a9161097d906142d0565b156129a75760405162461bcd60e51b815260040161025090614009565b6117498484846131e9565b60055460ff166129fb5760405162461bcd60e51b815260206004820152601460248201527314185d5cd8589b194e881b9bdd081c185d5cd95960621b6044820152606401610250565b6005805460ff191690557f5db9ee0a495bf2e6ff9c91a7834c1ba4fdd244a5e8aa4e537bd38aeae4b073aa335b6040516001600160a01b03909116815260200160405180910390a1565b805161175a906003906020840190613366565b600080546001600160a01b038381166001600160a01b0319831681178455604051919092169283917f8be0079c531659141344cd1fd0a4f28419497f9722a3daafe3b4186f6b6457e09190a35050565b6001600160a01b038416612ace5760405162461bcd60e51b81526004016102509061408f565b33612ade81878761250088612e1b565b60008481526001602090815260408083206001600160a01b038a16845290915290205483811015612b215760405162461bcd60e51b8152600401610250906140d4565b60008581526001602090815260408083206001600160a01b038b8116855292528083208785039055908816825281208054869290612b60908490614213565b909155505060408051868152602081018690526001600160a01b03808916928a821692918616917fc3d58168c5ae7397731d063d5bbf3d657854427343f4c083240f7aacaa2d0f62910160405180910390a4612bc0828888888888612fb4565b50505050505050565b60055460ff1615612bec5760405162461bcd60e51b815260040161025090614065565b6005805460ff191660011790557f62e78cea01bee320cd4e420270b5ea74000d11b0c9f74754ebdbfc544b05a258612a283390565b816001600160a01b0316836001600160a01b03161415612c955760405162461bcd60e51b815260206004820152602960248201527f455243313135353a2073657474696e6720617070726f76616c20737461747573604482015268103337b91039b2b63360b91b6064820152608401610250565b6001600160a01b03838116600081815260026020908152604080832094871680845294825291829020805460ff191686151590811790915591519182527f17307eab39ab6107e8899845ad3d59bd9653f200f220920489ca2b5937696c31910160405180910390a3505050565b80471015612d525760405162461bcd60e51b815260206004820152601d60248201527f416464726573733a20696e73756666696369656e742062616c616e63650000006044820152606401610250565b6000826001600160a01b03168260405160006040518083038185875af1925050503d8060008114612d9f576040519150601f19603f3d011682016040523d82523d6000602084013e612da4565b606091505b50509050806110bd5760405162461bcd60e51b815260206004820152603a60248201527f416464726573733a20756e61626c6520746f2073656e642076616c75652c207260448201527f6563697069656e74206d617920686176652072657665727465640000000000006064820152608401610250565b60408051600180825281830190925260609160009190602080830190803683370190505090508281600081518110612e6357634e487b7160e01b600052603260045260246000fd5b602090810291909101015292915050565b6001600160a01b03841615801590612e9457506001600160a01b03851615155b15612963576000546001600160a01b0316331480612eba57506001600160a01b03851633145b80612eca5750612eca8533610890565b612f055760405162461bcd60e51b815260206004820152600c60248201526b155b985d5d1a1bdc9a5e995960a21b6044820152606401610250565b60005b8351811015612bc05760046000858381518110612f3557634e487b7160e01b600052603260045260246000fd5b60209081029190910181015182528101919091526040016000206001015460ff16612fa25760405162461bcd60e51b815260206004820152601f60248201527f5472616e736665722064697361626c656420666f7220746869732074696572006044820152606401610250565b80612fac81614331565b915050612f08565b6001600160a01b0384163b156129635760405163f23a6e6160e01b81526001600160a01b0385169063f23a6e6190612ff89089908990889088908890600401613d65565b602060405180830381600087803b15801561301257600080fd5b505af1925050508015613042575060408051601f3d908101601f1916820190925261303f91810190613afe565b60015b6130ef5761304e614398565b806308c379a0141561308857506130636143b0565b8061306e575061308a565b8060405162461bcd60e51b81526004016102509190613e70565b505b60405162461bcd60e51b815260206004820152603460248201527f455243313135353a207472616e7366657220746f206e6f6e20455243313135356044820152732932b1b2b4bb32b91034b6b83632b6b2b73a32b960611b6064820152608401610250565b6001600160e01b0319811663f23a6e6160e01b14612bc05760405162461bcd60e51b815260040161025090613f93565b6001600160a01b0384163b156129635760405163bc197c8160e01b81526001600160a01b0385169063bc197c81906131639089908990889088908890600401613d07565b602060405180830381600087803b15801561317d57600080fd5b505af19250505080156131ad575060408051601f3d908101601f191682019092526131aa91810190613afe565b60015b6131b95761304e614398565b6001600160e01b0319811663bc197c8160e01b14612bc05760405162461bcd60e51b815260040161025090613f93565b6001600160a01b03831661324b5760405162461bcd60e51b815260206004820152602360248201527f455243313135353a206275726e2066726f6d20746865207a65726f206164647260448201526265737360e81b6064820152608401610250565b3361327a8185600061325c87612e1b565b61326587612e1b565b60405180602001604052806000815250612e74565b60008381526001602090815260408083206001600160a01b0388168452909152902054828110156132f95760405162461bcd60e51b8152602060048201526024808201527f455243313135353a206275726e20616d6f756e7420657863656564732062616c604482015263616e636560e01b6064820152608401610250565b60008481526001602090815260408083206001600160a01b03898116808652918452828520888703905582518981529384018890529092908616917fc3d58168c5ae7397731d063d5bbf3d657854427343f4c083240f7aacaa2d0f62910160405180910390a45050505050565b828054613372906142d0565b90600052602060002090601f01602090048101928261339457600085556133da565b82601f106133ad57805160ff19168380011785556133da565b828001600101855582156133da579182015b828111156133da5782518255916020019190600101906133bf565b5061142e92915061345a565b8280546133f2906142d0565b90600052602060002090601f01602090048101928261341457600085556133da565b82601f1061342d5782800160ff198235161785556133da565b828001600101855582156133da579182015b828111156133da57823582559160200191906001019061343f565b5b8082111561142e576000815560010161345b565b60006001600160401b0383111561348857613488614382565b60405161349f601f8501601f191660200182614305565b8091508381528484840111156134b457600080fd5b83836020830137600060208583010152509392505050565b60008083601f8401126134dd578182fd5b5081356001600160401b038111156134f3578182fd5b6020830191508360208260051b850101111561350e57600080fd5b9250929050565b600082601f830112613525578081fd5b81356020613532826141f0565b60405161353f8282614305565b8381528281019150858301600585901b8701840188101561355e578586fd5b855b8581101561358557813561357381614439565b84529284019290840190600101613560565b5090979650505050505050565b600082601f8301126135a2578081fd5b813560206135af826141f0565b6040516135bc8282614305565b8381528281019150858301600585901b870184018810156135db578586fd5b855b85811015613585578135845292840192908401906001016135dd565b600082601f830112613609578081fd5b610ca08383356020850161346f565b60008083601f840112613629578182fd5b5081356001600160401b0381111561363f578182fd5b60208301915083602082850101111561350e57600080fd5b600060208284031215613668578081fd5b8135610ca081614439565b600080600060608486031215613687578182fd5b833561369281614439565b95602085013595506040909401359392505050565b600080604083850312156136b9578182fd5b82356136c481614439565b915060208301356136d481614439565b809150509250929050565b600080600080600060a086880312156136f6578081fd5b853561370181614439565b9450602086013561371181614439565b935060408601356001600160401b038082111561372c578283fd5b61373889838a01613592565b9450606088013591508082111561374d578283fd5b61375989838a01613592565b9350608088013591508082111561376e578283fd5b5061377b888289016135f9565b9150509295509295909350565b6000806000806080858703121561379d578182fd5b84356137a881614439565b935060208501356137b881614439565b93969395505050506040820135916060013590565b600080600080600060a086880312156137e4578283fd5b85356137ef81614439565b945060208601356137ff81614439565b9350604086013592506060860135915060808601356001600160401b03811115613827578182fd5b61377b888289016135f9565b60008060408385031215613845578182fd5b823561385081614439565b915060208301356136d48161444e565b60008060408385031215613872578182fd5b823561387d81614439565b946020939093013593505050565b600080600060608486031215613687578081fd5b600080600080600080606087890312156138b7578384fd5b86356001600160401b03808211156138cd578586fd5b6138d98a838b016134cc565b909850965060208901359150808211156138f1578586fd5b6138fd8a838b016134cc565b90965094506040890135915080821115613915578283fd5b5061392289828a016134cc565b979a9699509497509295939492505050565b600060208284031215613945578081fd5b81356001600160401b0381111561395a578182fd5b61396684828501613515565b949350505050565b600080600080600060608688031215613985578283fd5b85356001600160401b038082111561399b578485fd5b6139a789838a01613515565b965060208801359150808211156139bc578485fd5b6139c889838a016134cc565b909650945060408801359150808211156139e0578283fd5b506139ed888289016134cc565b969995985093965092949392505050565b60008060408385031215613a10578182fd5b82356001600160401b0380821115613a26578384fd5b613a3286838701613515565b93506020850135915080821115613a47578283fd5b50613a5485828601613592565b9150509250929050565b60008060008060408587031215613a73578182fd5b84356001600160401b0380821115613a89578384fd5b613a95888389016134cc565b90965094506020870135915080821115613aad578384fd5b50613aba878288016134cc565b95989497509550505050565b600060208284031215613ad7578081fd5b8151610ca08161444e565b600060208284031215613af3578081fd5b8135610ca08161445c565b600060208284031215613b0f578081fd5b8151610ca08161445c565b60008060208385031215613b2c578182fd5b82356001600160401b03811115613b41578283fd5b613b4d85828601613618565b90969095509350505050565b600060208284031215613b6a578081fd5b5035919050565b600060208284031215613b82578081fd5b5051919050565b60008060408385031215613b9b578182fd5b8235915060208301356136d48161444e565b600080600060408486031215613bc1578081fd5b8335925060208401356001600160401b03811115613bdd578182fd5b613be986828701613618565b9497909650939450505050565b60008060008060808587031215613c0b578182fd5b8435935060208501356001600160401b03811115613c27578283fd5b8501601f81018713613c37578283fd5b613c468782356020840161346f565b9350506040850135613c578161444e565b91506060850135613c6781614439565b939692955090935050565b6000815180845260208085019450808401835b83811015613ca157815187529582019590820190600101613c85565b509495945050505050565b60008151808452613cc48160208601602086016142a4565b601f01601f19169290920160200192915050565b60008351613cea8184602088016142a4565b835190830190613cfe8183602088016142a4565b01949350505050565b6001600160a01b0386811682528516602082015260a060408201819052600090613d3390830186613c72565b8281036060840152613d458186613c72565b90508281036080840152613d598185613cac565b98975050505050505050565b6001600160a01b03868116825285166020820152604081018490526060810183905260a060808201819052600090613d9f90830184613cac565b979650505050505050565b6020808252825182820181905260009190848201906040850190845b81811015613deb5783516001600160a01b031683529284019291840191600101613dc6565b50909695505050505050565b602081526000610ca06020830184613c72565b604081526000613e1d6040830185613c72565b8281036020840152613e2f8185613c72565b95945050505050565b6040815282604082015282846060830137600060608483018101919091529115156020820152601f909201601f191690910101919050565b602081526000610ca06020830184613cac565b604081526000613e966040830185613cac565b905082151560208301529392505050565b606081526000613eba6060830186613cac565b9315156020830152506001600160a01b0391909116604090910152919050565b60408152600080845482600182811c915080831680613efa57607f831692505b6020808410821415613f1a57634e487b7160e01b87526022600452602487fd5b6040880184905260608801828015613f395760018114613f4a57613f74565b60ff19871682528282019750613f74565b60008c815260209020895b87811015613f6e57815484820152908601908401613f55565b83019850505b5050859650613f868189018a15159052565b5050505050509392505050565b60208082526028908201527f455243313135353a204552433131353552656365697665722072656a656374656040820152676420746f6b656e7360c01b606082015260800190565b602080825260149082015273092dce0eae840c2e4e4c2f240dad2e6dac2e8c6d60631b604082015260600190565b602080825260139082015272151a595c88191bd95cc81b9bdd08195e1a5cdd606a1b604082015260600190565b60208082526015908201527424ba1034b9903737ba1030903137bc103a37b5b2b760591b604082015260600190565b60208082526010908201526f14185d5cd8589b194e881c185d5cd95960821b604082015260600190565b60208082526025908201527f455243313135353a207472616e7366657220746f20746865207a65726f206164604082015264647265737360d81b606082015260800190565b6020808252602a908201527f455243313135353a20696e73756666696369656e742062616c616e636520666f60408201526939103a3930b739b332b960b11b606082015260800190565b6020808252818101527f4f776e61626c653a2063616c6c6572206973206e6f7420746865206f776e6572604082015260600190565b6020808252600f908201526e1d1c985b9cd9995c8819985a5b1959608a1b604082015260600190565b602080825260169082015275537472696e672063616e6e6f7420626520656d70747960501b604082015260600190565b6000808335601e198436030181126141c2578283fd5b8301803591506001600160401b038211156141db578283fd5b60200191503681900382131561350e57600080fd5b60006001600160401b0382111561420957614209614382565b5060051b60200190565b600082198211156142265761422661436c565b500190565b60008261424657634e487b7160e01b81526012600452602481fd5b500490565b60008160001904831182151516156142655761426561436c565b500290565b60008282101561427c5761427c61436c565b500390565b600060ff821660ff84168082101561429b5761429b61436c565b90039392505050565b60005b838110156142bf5781810151838201526020016142a7565b838111156117495750506000910152565b600181811c908216806142e457607f821691505b6020821081141561159d57634e487b7160e01b600052602260045260246000fd5b601f8201601f191681016001600160401b038111828210171561432a5761432a614382565b6040525050565b60006000198214156143455761434561436c565b5060010190565b600060ff821660ff8114156143635761436361436c565b60010192915050565b634e487b7160e01b600052601160045260246000fd5b634e487b7160e01b600052604160045260246000fd5b600060033d11156143ad57600481823e5160e01c5b90565b600060443d10156143be5790565b6040516003193d81016004833e81513d6001600160401b0381602484011181841117156143ed57505050505090565b82850191508151818111156144055750505050505090565b843d870101602082850101111561441f5750505050505090565b61442e60208286010187614305565b509095945050505050565b6001600160a01b0381168114611f2b57600080fd5b8015158114611f2b57600080fd5b6001600160e01b031981168114611f2b57600080fdfea264697066735822122028be808e636609067c2d0010480817b9bba067db580d41ebf15790a041af541264736f6c63430008040033",
  "devdoc": {
    "kind": "dev",
    "methods": {
      "balanceOf(address,uint256)": {
        "details": "See {IERC1155-balanceOf}. Requirements: - `account` cannot be the zero address."
      },
      "balanceOfBatch(address[],uint256[])": {
        "details": "See {IERC1155-balanceOfBatch}. Requirements: - `accounts` and `ids` must have the same length."
      },
      "burn(address,uint256,uint256)": {
        "details": "burns specified amount token(s) of specific id from specified account",
        "params": {
          "account": "address of token holder",
          "amount": "units of token to be burnt from beneficiary",
          "id": "id of token, aka. tier"
        }
      },
      "burnFromMultiple(address[],uint256[],uint256[])": {
        "details": "burns from multiple addresses arbitrary units of tokens of ONE token id per address                      example: burn 3 units of tokenId 1 from alice and 4 units of tokenId 2 froms bob",
        "params": {
          "accounts": "list of token holder addresses",
          "amounts": "list of burn amounts",
          "tokenIds": "list of token ids (aka tiers)"
        }
      },
      "changeBaseUri(string)": {
        "details": "sets a base uri, that is the first part of the url where the metadata for a tokenId is stored",
        "params": {
          "_newBaseUri": "baseUrl (e.g. www.filestoring.com/)"
        }
      },
      "createTokenTier(uint256,string,bool,address)": {
        "details": "creates a new token tier",
        "params": {
          "tokenId": "identifier for the new token tier",
          "transferable": "determines if tokens from specific tier should be transferable or not",
          "uriId": "identifier that is appended to the baseUri together forming the uri where the metadata lives"
        }
      },
      "isApprovedForAll(address,address)": {
        "details": "See {IERC1155-isApprovedForAll}."
      },
      "mint(address,uint256,uint256)": {
        "details": "mints specified amount token(s) of specific id to specified account",
        "params": {
          "account": "beneficiary address",
          "amount": "units of token to be minted to beneficiary",
          "id": "id of token, aka. tier"
        }
      },
      "mintToMultiple(address[],uint256[],uint256[])": {
        "details": "mints to multiple addresses arbitrary units of tokens of ONE token id per address",
        "params": {
          "accounts": "list of beneficiary addresses",
          "amounts": "list of mint amounts",
          "tokenIds": "list of token ids (aka tiers)"
        }
      },
      "owner()": {
        "details": "Returns the address of the current owner."
      },
      "paused()": {
        "details": "Returns true if the contract is paused, and false otherwise."
      },
      "renounceOwnership()": {
        "details": "Leaves the contract without owner. It will not be possible to call `onlyOwner` functions anymore. Can only be called by the current owner. NOTE: Renouncing ownership will leave the contract without an owner, thereby removing any functionality that is only available to the owner."
      },
      "safeBatchTransferFrom(address,address,uint256[],uint256[],bytes)": {
        "details": "See {IERC1155-safeBatchTransferFrom}."
      },
      "safeTransferFrom(address,address,uint256,uint256,bytes)": {
        "details": "transfers tokens from one address to another allowing custom data parameter",
        "params": {
          "amount": "amount of token to be transferred",
          "from": "address from which token will be transferred",
          "id": "id of token to be transferred",
          "to": "recipient of address"
        }
      },
      "setApprovalForAll(address,bool)": {
        "details": "See {IERC1155-setApprovalForAll}."
      },
      "supportsInterface(bytes4)": {
        "details": "See {IERC165-supportsInterface}."
      },
      "transferFromWithoutData(address,address,uint256,uint256)": {
        "details": "transfers tokens from one address to another and uses 0x0 as default data parameter",
        "params": {
          "amount": "amount of token to be transferred",
          "from": "address from which token will be transferred",
          "id": "id of token to be transferred",
          "to": "recipient of address"
        }
      },
      "transferOwnership(address)": {
        "details": "Transfers ownership of the contract to a new account (`newOwner`). Can only be called by the current owner."
      },
      "updateMultipleUriIdentifiers(uint256[],string[])": {
        "details": "update uri identifiers for multiple token ids (tiers)",
        "params": {
          "tokenIds": "tokenIds for which the uri should be updated (must be in same order as uriIds)",
          "uriIds": "identifiers that are appended to the baseUri together forming the uri where the metadata lives (must be in same order ass tokenIds)"
        }
      },
      "updateTransferableStatus(uint256,bool)": {
        "details": "updates transferability for a given token id (tier)",
        "params": {
          "tokenId": "tokenId for which transferability should be updated",
          "transferable": "determines whether tokens from tier should be transferable or not"
        }
      },
      "updateUriIdentifier(uint256,string)": {
        "details": "updates the identifier that is appended to the baseUri for a specific tokenId (tier)",
        "params": {
          "tokenId": "tokenId for which the uri should be updated",
          "uriId": "identifier that is appended to the baseUri together forming the uri where the metadata lives"
        }
      },
      "uri(uint256)": {
        "details": "returns the uri for a given token",
        "params": {
          "tokenId": "tokenId for which the uri should be retrieved"
        }
      }
    },
    "version": 1
  },
  "userdoc": {
    "kind": "user",
    "methods": {
      "mintToMultiple(address[],uint256[],uint256[])": {
        "notice": "example: mint 3 units of tokenId 1 to alice and 4 units of tokenId 2 to bob"
      },
      "safeTransferFrom(address,address,uint256,uint256,bytes)": {
        "notice": "this is the standard transfer interface for ERC1155 tokens which contracts expect"
      },
      "transferFromWithoutData(address,address,uint256,uint256)": {
        "notice": "this is mainly used for manual contract interactions via etherscan"
      },
      "uri(uint256)": {
        "notice": "consists of a concatenation of baseUri and uriId"
      }
    },
    "version": 1
  },
  "storageLayout": {
    "storage": [
      {
        "astId": 7,
        "contract": "contracts/Karmic.sol:Karmic",
        "label": "_owner",
        "offset": 0,
        "slot": "0",
        "type": "t_address"
      },
      {
        "astId": 222,
        "contract": "contracts/Karmic.sol:Karmic",
        "label": "_balances",
        "offset": 0,
        "slot": "1",
        "type": "t_mapping(t_uint256,t_mapping(t_address,t_uint256))"
      },
      {
        "astId": 228,
        "contract": "contracts/Karmic.sol:Karmic",
        "label": "_operatorApprovals",
        "offset": 0,
        "slot": "2",
        "type": "t_mapping(t_address,t_mapping(t_address,t_bool))"
      },
      {
        "astId": 230,
        "contract": "contracts/Karmic.sol:Karmic",
        "label": "_uri",
        "offset": 0,
        "slot": "3",
        "type": "t_string_storage"
      },
      {
        "astId": 2491,
        "contract": "contracts/Karmic.sol:Karmic",
        "label": "tokenTiers",
        "offset": 0,
        "slot": "4",
        "type": "t_mapping(t_uint256,t_struct(TokenTier)2498_storage)"
      },
      {
        "astId": 122,
        "contract": "contracts/Karmic.sol:Karmic",
        "label": "_paused",
        "offset": 0,
        "slot": "5",
        "type": "t_bool"
      },
      {
        "astId": 3200,
        "contract": "contracts/Karmic.sol:Karmic",
        "label": "boxTokenTiers",
        "offset": 0,
        "slot": "6",
        "type": "t_mapping(t_address,t_struct(BoxToken)3217_storage)"
      },
      {
        "astId": 3202,
        "contract": "contracts/Karmic.sol:Karmic",
        "label": "boxTokenCounter",
        "offset": 0,
        "slot": "7",
        "type": "t_uint256"
      },
      {
        "astId": 3204,
        "contract": "contracts/Karmic.sol:Karmic",
        "label": "fee",
        "offset": 0,
        "slot": "8",
        "type": "t_uint256"
      }
    ],
    "types": {
      "t_address": {
        "encoding": "inplace",
        "label": "address",
        "numberOfBytes": "20"
      },
      "t_bool": {
        "encoding": "inplace",
        "label": "bool",
        "numberOfBytes": "1"
      },
      "t_mapping(t_address,t_bool)": {
        "encoding": "mapping",
        "key": "t_address",
        "label": "mapping(address => bool)",
        "numberOfBytes": "32",
        "value": "t_bool"
      },
      "t_mapping(t_address,t_mapping(t_address,t_bool))": {
        "encoding": "mapping",
        "key": "t_address",
        "label": "mapping(address => mapping(address => bool))",
        "numberOfBytes": "32",
        "value": "t_mapping(t_address,t_bool)"
      },
      "t_mapping(t_address,t_struct(BoxToken)3217_storage)": {
        "encoding": "mapping",
        "key": "t_address",
        "label": "mapping(address => struct Karmic.BoxToken)",
        "numberOfBytes": "32",
        "value": "t_struct(BoxToken)3217_storage"
      },
      "t_mapping(t_address,t_uint256)": {
        "encoding": "mapping",
        "key": "t_address",
        "label": "mapping(address => uint256)",
        "numberOfBytes": "32",
        "value": "t_uint256"
      },
      "t_mapping(t_uint256,t_mapping(t_address,t_uint256))": {
        "encoding": "mapping",
        "key": "t_uint256",
        "label": "mapping(uint256 => mapping(address => uint256))",
        "numberOfBytes": "32",
        "value": "t_mapping(t_address,t_uint256)"
      },
      "t_mapping(t_uint256,t_struct(TokenTier)2498_storage)": {
        "encoding": "mapping",
        "key": "t_uint256",
        "label": "mapping(uint256 => struct Badger.TokenTier)",
        "numberOfBytes": "32",
        "value": "t_struct(TokenTier)2498_storage"
      },
      "t_string_storage": {
        "encoding": "bytes",
        "label": "string",
        "numberOfBytes": "32"
      },
      "t_struct(BoxToken)3217_storage": {
        "encoding": "inplace",
        "label": "struct Karmic.BoxToken",
        "members": [
          {
            "astId": 3206,
            "contract": "contracts/Karmic.sol:Karmic",
            "label": "id",
            "offset": 0,
            "slot": "0",
            "type": "t_uint256"
          },
          {
            "astId": 3208,
            "contract": "contracts/Karmic.sol:Karmic",
            "label": "amount",
            "offset": 0,
            "slot": "1",
            "type": "t_uint256"
          },
          {
            "astId": 3210,
            "contract": "contracts/Karmic.sol:Karmic",
            "label": "funds",
            "offset": 0,
            "slot": "2",
            "type": "t_uint256"
          },
          {
            "astId": 3212,
            "contract": "contracts/Karmic.sol:Karmic",
            "label": "distributed",
            "offset": 0,
            "slot": "3",
            "type": "t_uint256"
          },
          {
            "astId": 3214,
            "contract": "contracts/Karmic.sol:Karmic",
            "label": "passedThreshold",
            "offset": 0,
            "slot": "4",
            "type": "t_bool"
          },
          {
            "astId": 3216,
            "contract": "contracts/Karmic.sol:Karmic",
            "label": "threshold",
            "offset": 0,
            "slot": "5",
            "type": "t_uint256"
          }
        ],
        "numberOfBytes": "192"
      },
      "t_struct(TokenTier)2498_storage": {
        "encoding": "inplace",
        "label": "struct Badger.TokenTier",
        "members": [
          {
            "astId": 2493,
            "contract": "contracts/Karmic.sol:Karmic",
            "label": "uriId",
            "offset": 0,
            "slot": "0",
            "type": "t_string_storage"
          },
          {
            "astId": 2495,
            "contract": "contracts/Karmic.sol:Karmic",
            "label": "transferable",
            "offset": 0,
            "slot": "1",
            "type": "t_bool"
          },
          {
            "astId": 2497,
            "contract": "contracts/Karmic.sol:Karmic",
            "label": "boxToken",
            "offset": 1,
            "slot": "1",
            "type": "t_address"
          }
        ],
        "numberOfBytes": "64"
      },
      "t_uint256": {
        "encoding": "inplace",
        "label": "uint256",
        "numberOfBytes": "32"
      }
    }
  }
}